{
  "contractName": "Components",
  "abi": [
    {
      "inputs": [
        {
          "internalType": "contract IERC20",
          "name": "baseTradegen",
          "type": "address"
        }
      ],
      "stateMutability": "nonpayable",
      "type": "constructor"
    },
    {
      "anonymous": false,
      "inputs": [
        {
          "indexed": false,
          "internalType": "address",
          "name": "comparatorAddress",
          "type": "address"
        },
        {
          "indexed": false,
          "internalType": "uint256",
          "name": "comparatorindex",
          "type": "uint256"
        },
        {
          "indexed": false,
          "internalType": "uint256",
          "name": "timestamp",
          "type": "uint256"
        }
      ],
      "name": "AddedComparator",
      "type": "event"
    },
    {
      "anonymous": false,
      "inputs": [
        {
          "indexed": false,
          "internalType": "address",
          "name": "indicatorAddress",
          "type": "address"
        },
        {
          "indexed": false,
          "internalType": "uint256",
          "name": "indicatorindex",
          "type": "uint256"
        },
        {
          "indexed": false,
          "internalType": "uint256",
          "name": "timestamp",
          "type": "uint256"
        }
      ],
      "name": "AddedIndicator",
      "type": "event"
    },
    {
      "anonymous": false,
      "inputs": [
        {
          "indexed": false,
          "internalType": "uint256",
          "name": "defaultLength",
          "type": "uint256"
        },
        {
          "indexed": false,
          "internalType": "uint256",
          "name": "purchasedLength",
          "type": "uint256"
        }
      ],
      "name": "Lengths",
      "type": "event"
    },
    {
      "anonymous": false,
      "inputs": [
        {
          "indexed": true,
          "internalType": "address",
          "name": "previousOwner",
          "type": "address"
        },
        {
          "indexed": true,
          "internalType": "address",
          "name": "newOwner",
          "type": "address"
        }
      ],
      "name": "OwnershipTransferred",
      "type": "event"
    },
    {
      "anonymous": false,
      "inputs": [
        {
          "indexed": false,
          "internalType": "uint256[]",
          "name": "purchasedIndicators",
          "type": "uint256[]"
        }
      ],
      "name": "PurchasedIndicators",
      "type": "event"
    },
    {
      "inputs": [
        {
          "internalType": "address",
          "name": "",
          "type": "address"
        }
      ],
      "name": "comparatorAddressToIndex",
      "outputs": [
        {
          "internalType": "uint256",
          "name": "",
          "type": "uint256"
        }
      ],
      "stateMutability": "view",
      "type": "function"
    },
    {
      "inputs": [
        {
          "internalType": "address",
          "name": "",
          "type": "address"
        },
        {
          "internalType": "address",
          "name": "",
          "type": "address"
        }
      ],
      "name": "comparatorUsers",
      "outputs": [
        {
          "internalType": "uint256",
          "name": "",
          "type": "uint256"
        }
      ],
      "stateMutability": "view",
      "type": "function"
    },
    {
      "inputs": [
        {
          "internalType": "uint256",
          "name": "",
          "type": "uint256"
        }
      ],
      "name": "comparators",
      "outputs": [
        {
          "internalType": "address",
          "name": "",
          "type": "address"
        }
      ],
      "stateMutability": "view",
      "type": "function"
    },
    {
      "inputs": [
        {
          "internalType": "uint256",
          "name": "",
          "type": "uint256"
        }
      ],
      "name": "defaultComparators",
      "outputs": [
        {
          "internalType": "address",
          "name": "",
          "type": "address"
        }
      ],
      "stateMutability": "view",
      "type": "function"
    },
    {
      "inputs": [
        {
          "internalType": "uint256",
          "name": "",
          "type": "uint256"
        }
      ],
      "name": "defaultIndicators",
      "outputs": [
        {
          "internalType": "address",
          "name": "",
          "type": "address"
        }
      ],
      "stateMutability": "view",
      "type": "function"
    },
    {
      "inputs": [
        {
          "internalType": "address",
          "name": "",
          "type": "address"
        }
      ],
      "name": "indicatorAddressToIndex",
      "outputs": [
        {
          "internalType": "uint256",
          "name": "",
          "type": "uint256"
        }
      ],
      "stateMutability": "view",
      "type": "function"
    },
    {
      "inputs": [
        {
          "internalType": "address",
          "name": "",
          "type": "address"
        },
        {
          "internalType": "address",
          "name": "",
          "type": "address"
        }
      ],
      "name": "indicatorUsers",
      "outputs": [
        {
          "internalType": "uint256",
          "name": "",
          "type": "uint256"
        }
      ],
      "stateMutability": "view",
      "type": "function"
    },
    {
      "inputs": [
        {
          "internalType": "uint256",
          "name": "",
          "type": "uint256"
        }
      ],
      "name": "indicators",
      "outputs": [
        {
          "internalType": "address",
          "name": "",
          "type": "address"
        }
      ],
      "stateMutability": "view",
      "type": "function"
    },
    {
      "inputs": [],
      "name": "isOwner",
      "outputs": [
        {
          "internalType": "bool",
          "name": "",
          "type": "bool"
        }
      ],
      "stateMutability": "view",
      "type": "function"
    },
    {
      "inputs": [],
      "name": "owner",
      "outputs": [
        {
          "internalType": "address",
          "name": "",
          "type": "address"
        }
      ],
      "stateMutability": "view",
      "type": "function"
    },
    {
      "inputs": [],
      "name": "renounceOwnership",
      "outputs": [],
      "stateMutability": "nonpayable",
      "type": "function"
    },
    {
      "inputs": [
        {
          "internalType": "address",
          "name": "newOwner",
          "type": "address"
        }
      ],
      "name": "transferOwnership",
      "outputs": [],
      "stateMutability": "nonpayable",
      "type": "function"
    },
    {
      "inputs": [
        {
          "internalType": "address",
          "name": "",
          "type": "address"
        },
        {
          "internalType": "uint256",
          "name": "",
          "type": "uint256"
        }
      ],
      "name": "userPurchasedComparators",
      "outputs": [
        {
          "internalType": "uint256",
          "name": "",
          "type": "uint256"
        }
      ],
      "stateMutability": "view",
      "type": "function"
    },
    {
      "inputs": [
        {
          "internalType": "address",
          "name": "",
          "type": "address"
        },
        {
          "internalType": "uint256",
          "name": "",
          "type": "uint256"
        }
      ],
      "name": "userPurchasedIndicators",
      "outputs": [
        {
          "internalType": "uint256",
          "name": "",
          "type": "uint256"
        }
      ],
      "stateMutability": "view",
      "type": "function"
    },
    {
      "inputs": [
        {
          "internalType": "bool",
          "name": "isDefault",
          "type": "bool"
        },
        {
          "internalType": "uint256",
          "name": "index",
          "type": "uint256"
        }
      ],
      "name": "getIndicatorFromIndex",
      "outputs": [
        {
          "internalType": "address",
          "name": "",
          "type": "address"
        }
      ],
      "stateMutability": "view",
      "type": "function"
    },
    {
      "inputs": [
        {
          "internalType": "bool",
          "name": "isDefault",
          "type": "bool"
        },
        {
          "internalType": "uint256",
          "name": "index",
          "type": "uint256"
        }
      ],
      "name": "getComparatorFromIndex",
      "outputs": [
        {
          "internalType": "address",
          "name": "",
          "type": "address"
        }
      ],
      "stateMutability": "view",
      "type": "function"
    },
    {
      "inputs": [],
      "name": "getDefaultIndicators",
      "outputs": [
        {
          "internalType": "address[]",
          "name": "",
          "type": "address[]"
        }
      ],
      "stateMutability": "view",
      "type": "function"
    },
    {
      "inputs": [],
      "name": "getIndicators",
      "outputs": [
        {
          "internalType": "address[]",
          "name": "",
          "type": "address[]"
        }
      ],
      "stateMutability": "view",
      "type": "function"
    },
    {
      "inputs": [],
      "name": "getDefaultComparators",
      "outputs": [
        {
          "internalType": "address[]",
          "name": "",
          "type": "address[]"
        }
      ],
      "stateMutability": "view",
      "type": "function"
    },
    {
      "inputs": [],
      "name": "getComparators",
      "outputs": [
        {
          "internalType": "address[]",
          "name": "",
          "type": "address[]"
        }
      ],
      "stateMutability": "view",
      "type": "function"
    },
    {
      "inputs": [
        {
          "internalType": "address",
          "name": "user",
          "type": "address"
        }
      ],
      "name": "getUserPurchasedIndicators",
      "outputs": [
        {
          "internalType": "address[]",
          "name": "",
          "type": "address[]"
        }
      ],
      "stateMutability": "view",
      "type": "function"
    },
    {
      "inputs": [
        {
          "internalType": "address",
          "name": "user",
          "type": "address"
        }
      ],
      "name": "getUserPurchasedComparators",
      "outputs": [
        {
          "internalType": "address[]",
          "name": "",
          "type": "address[]"
        }
      ],
      "stateMutability": "view",
      "type": "function"
    },
    {
      "inputs": [
        {
          "internalType": "address",
          "name": "user",
          "type": "address"
        },
        {
          "internalType": "uint256",
          "name": "indicatorIndex",
          "type": "uint256"
        }
      ],
      "name": "checkIfUserPurchasedIndicator",
      "outputs": [
        {
          "internalType": "bool",
          "name": "",
          "type": "bool"
        }
      ],
      "stateMutability": "view",
      "type": "function"
    },
    {
      "inputs": [
        {
          "internalType": "address",
          "name": "user",
          "type": "address"
        },
        {
          "internalType": "uint256",
          "name": "comparatorIndex",
          "type": "uint256"
        }
      ],
      "name": "checkIfUserPurchasedComparator",
      "outputs": [
        {
          "internalType": "bool",
          "name": "",
          "type": "bool"
        }
      ],
      "stateMutability": "view",
      "type": "function"
    },
    {
      "inputs": [
        {
          "internalType": "address",
          "name": "indicatorAddress",
          "type": "address"
        }
      ],
      "name": "buyIndicator",
      "outputs": [],
      "stateMutability": "nonpayable",
      "type": "function"
    },
    {
      "inputs": [
        {
          "internalType": "address",
          "name": "comparatorAddress",
          "type": "address"
        }
      ],
      "name": "buyComparator",
      "outputs": [],
      "stateMutability": "nonpayable",
      "type": "function"
    },
    {
      "inputs": [
        {
          "internalType": "bool",
          "name": "isDefault",
          "type": "bool"
        },
        {
          "internalType": "address",
          "name": "indicatorAddress",
          "type": "address"
        }
      ],
      "name": "_addNewIndicator",
      "outputs": [],
      "stateMutability": "nonpayable",
      "type": "function"
    },
    {
      "inputs": [
        {
          "internalType": "bool",
          "name": "isDefault",
          "type": "bool"
        },
        {
          "internalType": "address",
          "name": "comparatorAddress",
          "type": "address"
        }
      ],
      "name": "_addNewComparator",
      "outputs": [],
      "stateMutability": "nonpayable",
      "type": "function"
    }
  ],
  "bytecode": "0x60a060405234801561001057600080fd5b506040516133783803806133788339818101604052602081101561003357600080fd5b8101908080519060200190929190505050336000806101000a81548173ffffffffffffffffffffffffffffffffffffffff021916908373ffffffffffffffffffffffffffffffffffffffff16021790555060008054906101000a900473ffffffffffffffffffffffffffffffffffffffff1673ffffffffffffffffffffffffffffffffffffffff16600073ffffffffffffffffffffffffffffffffffffffff167f8be0079c531659141344cd1fd0a4f28419497f9722a3daafe3b4186f6b6457e060405160405180910390a38073ffffffffffffffffffffffffffffffffffffffff1660808173ffffffffffffffffffffffffffffffffffffffff1660601b815250505060805160601c61321f61015960003980610f8b52806127eb525061321f6000f3fe608060405234801561001057600080fd5b50600436106101c45760003560e01c806382c7508f116100f9578063ab8b80e711610097578063e5467a8f11610071578063e5467a8f14610a3e578063e7f197d814610a9d578063f2fde38b14610aed578063f4581c4d14610b31576101c4565b8063ab8b80e714610936578063c22b6e4314610998578063d612021a146109dc576101c4565b8063908f977c116100d3578063908f977c146107d757806392c871d2146108275780639f37e9111461087f578063a339e440146108d7576101c4565b806382c7508f146106ea5780638da5cb5b146107835780638f32d59b146107b7576101c4565b80634232f9821161016657806356542dab1161014057806356542dab146105a05780636327055e14610604578063715018a6146106685780637ecec60114610672576101c4565b80634232f9821461044457806345ad091c146104a8578063479e204714610507576101c4565b806326d0d8b1116101a257806326d0d8b1146102d857806328228f71146103305780632c682dd7146103885780633f27d4ce146103cc576101c4565b80630ff08321146101c95780631729cde0146102285780631c96bcec14610280575b600080fd5b6101d1610b95565b6040518080602001828103825283818151815260200191508051906020019060200280838360005b838110156102145780820151818401526020810190506101f9565b505050509050019250505060405180910390f35b61026a6004803603602081101561023e57600080fd5b81019080803573ffffffffffffffffffffffffffffffffffffffff169060200190929190505050610c23565b6040518082815260200191505060405180910390f35b6102c26004803603602081101561029657600080fd5b81019080803573ffffffffffffffffffffffffffffffffffffffff169060200190929190505050610c3b565b6040518082815260200191505060405180910390f35b610304600480360360208110156102ee57600080fd5b8101908080359060200190929190505050610c53565b604051808273ffffffffffffffffffffffffffffffffffffffff16815260200191505060405180910390f35b61035c6004803603602081101561034657600080fd5b8101908080359060200190929190505050610c8f565b604051808273ffffffffffffffffffffffffffffffffffffffff16815260200191505060405180910390f35b6103ca6004803603602081101561039e57600080fd5b81019080803573ffffffffffffffffffffffffffffffffffffffff169060200190929190505050610ccb565b005b61042e600480360360408110156103e257600080fd5b81019080803573ffffffffffffffffffffffffffffffffffffffff169060200190929190803573ffffffffffffffffffffffffffffffffffffffff1690602001909291905050506111e1565b6040518082815260200191505060405180910390f35b6104906004803603604081101561045a57600080fd5b81019080803573ffffffffffffffffffffffffffffffffffffffff16906020019092919080359060200190929190505050611206565b60405180821515815260200191505060405180910390f35b6104b06113f6565b6040518080602001828103825283818151815260200191508051906020019060200280838360005b838110156104f35780820151818401526020810190506104d8565b505050509050019250505060405180910390f35b6105496004803603602081101561051d57600080fd5b81019080803573ffffffffffffffffffffffffffffffffffffffff169060200190929190505050611484565b6040518080602001828103825283818151815260200191508051906020019060200280838360005b8381101561058c578082015181840152602081019050610571565b505050509050019250505060405180910390f35b6105d8600480360360408110156105b657600080fd5b81019080803515159060200190929190803590602001909291905050506117a2565b604051808273ffffffffffffffffffffffffffffffffffffffff16815260200191505060405180910390f35b6106506004803603604081101561061a57600080fd5b81019080803573ffffffffffffffffffffffffffffffffffffffff16906020019092919080359060200190929190505050611938565b60405180821515815260200191505060405180910390f35b610670611b28565b005b6106d46004803603604081101561068857600080fd5b81019080803573ffffffffffffffffffffffffffffffffffffffff169060200190929190803573ffffffffffffffffffffffffffffffffffffffff169060200190929190505050611bf7565b6040518082815260200191505060405180910390f35b61072c6004803603602081101561070057600080fd5b81019080803573ffffffffffffffffffffffffffffffffffffffff169060200190929190505050611c1c565b6040518080602001828103825283818151815260200191508051906020019060200280838360005b8381101561076f578082015181840152602081019050610754565b505050509050019250505060405180910390f35b61078b611f3a565b604051808273ffffffffffffffffffffffffffffffffffffffff16815260200191505060405180910390f35b6107bf611f63565b60405180821515815260200191505060405180910390f35b610825600480360360408110156107ed57600080fd5b81019080803515159060200190929190803573ffffffffffffffffffffffffffffffffffffffff169060200190929190505050611fba565b005b6108536004803603602081101561083d57600080fd5b81019080803590602001909291905050506123da565b604051808273ffffffffffffffffffffffffffffffffffffffff16815260200191505060405180910390f35b6108ab6004803603602081101561089557600080fd5b8101908080359060200190929190505050612416565b604051808273ffffffffffffffffffffffffffffffffffffffff16815260200191505060405180910390f35b6108df612452565b6040518080602001828103825283818151815260200191508051906020019060200280838360005b83811015610922578082015181840152602081019050610907565b505050509050019250505060405180910390f35b6109826004803603604081101561094c57600080fd5b81019080803573ffffffffffffffffffffffffffffffffffffffff169060200190929190803590602001909291905050506124e0565b6040518082815260200191505060405180910390f35b6109da600480360360208110156109ae57600080fd5b81019080803573ffffffffffffffffffffffffffffffffffffffff16906020019092919050505061250e565b005b610a28600480360360408110156109f257600080fd5b81019080803573ffffffffffffffffffffffffffffffffffffffff16906020019092919080359060200190929190505050612a41565b6040518082815260200191505060405180910390f35b610a46612a6f565b6040518080602001828103825283818151815260200191508051906020019060200280838360005b83811015610a89578082015181840152602081019050610a6e565b505050509050019250505060405180910390f35b610aeb60048036036040811015610ab357600080fd5b81019080803515159060200190929190803573ffffffffffffffffffffffffffffffffffffffff169060200190929190505050612afd565b005b610b2f60048036036020811015610b0357600080fd5b81019080803573ffffffffffffffffffffffffffffffffffffffff169060200190929190505050612f1e565b005b610b6960048036036040811015610b4757600080fd5b8101908080351515906020019092919080359060200190929190505050612f3b565b604051808273ffffffffffffffffffffffffffffffffffffffff16815260200191505060405180910390f35b60606003805480602002602001604051908101604052809291908181526020018280548015610c1957602002820191906000526020600020905b8160009054906101000a900473ffffffffffffffffffffffffffffffffffffffff1673ffffffffffffffffffffffffffffffffffffffff1681526020019060010190808311610bcf575b5050505050905090565b60056020528060005260406000206000915090505481565b60066020528060005260406000206000915090505481565b60028181548110610c6057fe5b906000526020600020016000915054906101000a900473ffffffffffffffffffffffffffffffffffffffff1681565b60048181548110610c9c57fe5b906000526020600020016000915054906101000a900473ffffffffffffffffffffffffffffffffffffffff1681565b600073ffffffffffffffffffffffffffffffffffffffff168173ffffffffffffffffffffffffffffffffffffffff161415610d6e576040517f08c379a000000000000000000000000000000000000000000000000000000000815260040180806020018281038252601a8152602001807f496e76616c696420636f6d70617261746f72206164647265737300000000000081525060200191505060405180910390fd5b6000600660008373ffffffffffffffffffffffffffffffffffffffff1673ffffffffffffffffffffffffffffffffffffffff1681526020019081526020016000205411610e23576040517f08c379a000000000000000000000000000000000000000000000000000000000815260040180806020018281038252601a8152602001807f496e76616c696420636f6d70617261746f72206164647265737300000000000081525060200191505060405180910390fd5b6000600a60008373ffffffffffffffffffffffffffffffffffffffff1673ffffffffffffffffffffffffffffffffffffffff16815260200190815260200160002060003373ffffffffffffffffffffffffffffffffffffffff1673ffffffffffffffffffffffffffffffffffffffff1681526020019081526020016000205414610ef8576040517f08c379a00000000000000000000000000000000000000000000000000000000081526004018080602001828103825260218152602001806131c96021913960400191505060405180910390fd5b6000808273ffffffffffffffffffffffffffffffffffffffff16637d6760bf6040518163ffffffff1660e01b8152600401604080518083038186803b158015610f4057600080fd5b505afa158015610f54573d6000803e3d6000fd5b505050506040513d6040811015610f6a57600080fd5b810190808051906020019092919080519060200190929190505050915091507f000000000000000000000000000000000000000000000000000000000000000073ffffffffffffffffffffffffffffffffffffffff166323b872dd3383856040518463ffffffff1660e01b8152600401808473ffffffffffffffffffffffffffffffffffffffff1681526020018373ffffffffffffffffffffffffffffffffffffffff1681526020018281526020019350505050602060405180830381600087803b15801561103857600080fd5b505af115801561104c573d6000803e3d6000fd5b505050506040513d602081101561106257600080fd5b810190808051906020019092919050505050600660008473ffffffffffffffffffffffffffffffffffffffff1673ffffffffffffffffffffffffffffffffffffffff16815260200190815260200160002054600a60008573ffffffffffffffffffffffffffffffffffffffff1673ffffffffffffffffffffffffffffffffffffffff16815260200190815260200160002060003373ffffffffffffffffffffffffffffffffffffffff1673ffffffffffffffffffffffffffffffffffffffff16815260200190815260200160002081905550600860003373ffffffffffffffffffffffffffffffffffffffff1673ffffffffffffffffffffffffffffffffffffffff1681526020019081526020016000206001600660008673ffffffffffffffffffffffffffffffffffffffff1673ffffffffffffffffffffffffffffffffffffffff16815260200190815260200160002054039080600181540180825580915050600190039060005260206000200160009091909190915055505050565b600a602052816000526040600020602052806000526040600020600091509150505481565b60008073ffffffffffffffffffffffffffffffffffffffff168373ffffffffffffffffffffffffffffffffffffffff1614156112aa576040517f08c379a00000000000000000000000000000000000000000000000000000000081526004018080602001828103825260148152602001807f496e76616c69642075736572206164647265737300000000000000000000000081525060200191505060405180910390fd5b600082101580156112bf575060038054905082105b611331576040517f08c379a000000000000000000000000000000000000000000000000000000000815260040180806020018281038252601c8152602001807f496e64696361746f7220696e646578206f7574206f662072616e67650000000081525060200191505060405180910390fd5b60006003838154811061134057fe5b9060005260206000200160009054906101000a900473ffffffffffffffffffffffffffffffffffffffff1690506000600960008373ffffffffffffffffffffffffffffffffffffffff1673ffffffffffffffffffffffffffffffffffffffff16815260200190815260200160002060008673ffffffffffffffffffffffffffffffffffffffff1673ffffffffffffffffffffffffffffffffffffffff168152602001908152602001600020541191505092915050565b6060600480548060200260200160405190810160405280929190818152602001828054801561147a57602002820191906000526020600020905b8160009054906101000a900473ffffffffffffffffffffffffffffffffffffffff1673ffffffffffffffffffffffffffffffffffffffff1681526020019060010190808311611430575b5050505050905090565b6060600073ffffffffffffffffffffffffffffffffffffffff168273ffffffffffffffffffffffffffffffffffffffff161415611529576040517f08c379a00000000000000000000000000000000000000000000000000000000081526004018080602001828103825260148152602001807f496e76616c69642075736572206164647265737300000000000000000000000081525060200191505060405180910390fd5b6000600760008473ffffffffffffffffffffffffffffffffffffffff1673ffffffffffffffffffffffffffffffffffffffff1681526020019081526020016000208054905060018054905001905060608167ffffffffffffffff8111801561159057600080fd5b506040519080825280602002602001820160405280156115bf5781602001602082028036833780820191505090505b50905060005b60018054905081101561165d57600181815481106115df57fe5b9060005260206000200160009054906101000a900473ffffffffffffffffffffffffffffffffffffffff1682828151811061161657fe5b602002602001019073ffffffffffffffffffffffffffffffffffffffff16908173ffffffffffffffffffffffffffffffffffffffff168152505080806001019150506115c5565b5060005b600760008673ffffffffffffffffffffffffffffffffffffffff1673ffffffffffffffffffffffffffffffffffffffff16815260200190815260200160002080549050811015611797576000600760008773ffffffffffffffffffffffffffffffffffffffff1673ffffffffffffffffffffffffffffffffffffffff16815260200190815260200160002082815481106116f757fe5b906000526020600020015490506003818154811061171157fe5b9060005260206000200160009054906101000a900473ffffffffffffffffffffffffffffffffffffffff168383600180549050018151811061174f57fe5b602002602001019073ffffffffffffffffffffffffffffffffffffffff16908173ffffffffffffffffffffffffffffffffffffffff1681525050508080600101915050611661565b508092505050919050565b6000821561187057600082101580156117bf575060018054905082105b611831576040517f08c379a00000000000000000000000000000000000000000000000000000000081526004018080602001828103825260128152602001807f496e646578206f7574206f662072616e6765000000000000000000000000000081525060200191505060405180910390fd5b6001828154811061183e57fe5b9060005260206000200160009054906101000a900473ffffffffffffffffffffffffffffffffffffffff169050611932565b60008210158015611885575060038054905082105b6118f7576040517f08c379a00000000000000000000000000000000000000000000000000000000081526004018080602001828103825260128152602001807f496e646578206f7574206f662072616e6765000000000000000000000000000081525060200191505060405180910390fd5b6003828154811061190457fe5b9060005260206000200160009054906101000a900473ffffffffffffffffffffffffffffffffffffffff1690505b92915050565b60008073ffffffffffffffffffffffffffffffffffffffff168373ffffffffffffffffffffffffffffffffffffffff1614156119dc576040517f08c379a00000000000000000000000000000000000000000000000000000000081526004018080602001828103825260148152602001807f496e76616c69642075736572206164647265737300000000000000000000000081525060200191505060405180910390fd5b600082101580156119f1575060048054905082105b611a63576040517f08c379a000000000000000000000000000000000000000000000000000000000815260040180806020018281038252601e8152602001807f436f6d70617261746f727320696e646578206f7574206f662072616e6765000081525060200191505060405180910390fd5b600060048381548110611a7257fe5b9060005260206000200160009054906101000a900473ffffffffffffffffffffffffffffffffffffffff1690506000600a60008373ffffffffffffffffffffffffffffffffffffffff1673ffffffffffffffffffffffffffffffffffffffff16815260200190815260200160002060008673ffffffffffffffffffffffffffffffffffffffff1673ffffffffffffffffffffffffffffffffffffffff168152602001908152602001600020541191505092915050565b611b30611f63565b611b3957600080fd5b600073ffffffffffffffffffffffffffffffffffffffff1660008054906101000a900473ffffffffffffffffffffffffffffffffffffffff1673ffffffffffffffffffffffffffffffffffffffff167f8be0079c531659141344cd1fd0a4f28419497f9722a3daafe3b4186f6b6457e060405160405180910390a360008060006101000a81548173ffffffffffffffffffffffffffffffffffffffff021916908373ffffffffffffffffffffffffffffffffffffffff160217905550565b6009602052816000526040600020602052806000526040600020600091509150505481565b6060600073ffffffffffffffffffffffffffffffffffffffff168273ffffffffffffffffffffffffffffffffffffffff161415611cc1576040517f08c379a00000000000000000000000000000000000000000000000000000000081526004018080602001828103825260148152602001807f496e76616c69642075736572206164647265737300000000000000000000000081525060200191505060405180910390fd5b6000600860008473ffffffffffffffffffffffffffffffffffffffff1673ffffffffffffffffffffffffffffffffffffffff1681526020019081526020016000208054905060028054905001905060608167ffffffffffffffff81118015611d2857600080fd5b50604051908082528060200260200182016040528015611d575781602001602082028036833780820191505090505b50905060005b600280549050811015611df55760028181548110611d7757fe5b9060005260206000200160009054906101000a900473ffffffffffffffffffffffffffffffffffffffff16828281518110611dae57fe5b602002602001019073ffffffffffffffffffffffffffffffffffffffff16908173ffffffffffffffffffffffffffffffffffffffff16815250508080600101915050611d5d565b5060005b600860008673ffffffffffffffffffffffffffffffffffffffff1673ffffffffffffffffffffffffffffffffffffffff16815260200190815260200160002080549050811015611f2f576000600860008773ffffffffffffffffffffffffffffffffffffffff1673ffffffffffffffffffffffffffffffffffffffff1681526020019081526020016000208281548110611e8f57fe5b9060005260206000200154905060048181548110611ea957fe5b9060005260206000200160009054906101000a900473ffffffffffffffffffffffffffffffffffffffff1683836002805490500181518110611ee757fe5b602002602001019073ffffffffffffffffffffffffffffffffffffffff16908173ffffffffffffffffffffffffffffffffffffffff1681525050508080600101915050611df9565b508092505050919050565b60008060009054906101000a900473ffffffffffffffffffffffffffffffffffffffff16905090565b60008060009054906101000a900473ffffffffffffffffffffffffffffffffffffffff1673ffffffffffffffffffffffffffffffffffffffff163373ffffffffffffffffffffffffffffffffffffffff1614905090565b611fc2611f63565b611fcb57600080fd5b600073ffffffffffffffffffffffffffffffffffffffff168173ffffffffffffffffffffffffffffffffffffffff16141561206e576040517f08c379a00000000000000000000000000000000000000000000000000000000081526004018080602001828103825260198152602001807f496e76616c696420696e64696361746f7220616464726573730000000000000081525060200191505060405180910390fd5b8115612140576001819080600181540180825580915050600190039060005260206000200160009091909190916101000a81548173ffffffffffffffffffffffffffffffffffffffff021916908373ffffffffffffffffffffffffffffffffffffffff1602179055507fb67e0e20da0b59ae9fe714a3d694bba9f5220d47e0a3326c86803486b9d051c581600180805490500342604051808473ffffffffffffffffffffffffffffffffffffffff168152602001838152602001828152602001935050505060405180910390a16123d6565b60008173ffffffffffffffffffffffffffffffffffffffff16637d6760bf6040518163ffffffff1660e01b8152600401604080518083038186803b15801561218757600080fd5b505afa15801561219b573d6000803e3d6000fd5b505050506040513d60408110156121b157600080fd5b8101908080519060200190929190805190602001909291905050509150506003829080600181540180825580915050600190039060005260206000200160009091909190916101000a81548173ffffffffffffffffffffffffffffffffffffffff021916908373ffffffffffffffffffffffffffffffffffffffff160217905550600380549050600560008473ffffffffffffffffffffffffffffffffffffffff1673ffffffffffffffffffffffffffffffffffffffff16815260200190815260200160002081905550600760008273ffffffffffffffffffffffffffffffffffffffff1673ffffffffffffffffffffffffffffffffffffffff1681526020019081526020016000206001600380549050039080600181540180825580915050600190039060005260206000200160009091909190915055600380549050600960008473ffffffffffffffffffffffffffffffffffffffff1673ffffffffffffffffffffffffffffffffffffffff16815260200190815260200160002060008373ffffffffffffffffffffffffffffffffffffffff1673ffffffffffffffffffffffffffffffffffffffff168152602001908152602001600020819055507fb67e0e20da0b59ae9fe714a3d694bba9f5220d47e0a3326c86803486b9d051c58260016003805490500342604051808473ffffffffffffffffffffffffffffffffffffffff168152602001838152602001828152602001935050505060405180910390a1505b5050565b600381815481106123e757fe5b906000526020600020016000915054906101000a900473ffffffffffffffffffffffffffffffffffffffff1681565b6001818154811061242357fe5b906000526020600020016000915054906101000a900473ffffffffffffffffffffffffffffffffffffffff1681565b606060018054806020026020016040519081016040528092919081815260200182805480156124d657602002820191906000526020600020905b8160009054906101000a900473ffffffffffffffffffffffffffffffffffffffff1673ffffffffffffffffffffffffffffffffffffffff168152602001906001019080831161248c575b5050505050905090565b600860205281600052604060002081815481106124f957fe5b90600052602060002001600091509150505481565b600073ffffffffffffffffffffffffffffffffffffffff168173ffffffffffffffffffffffffffffffffffffffff1614156125b1576040517f08c379a00000000000000000000000000000000000000000000000000000000081526004018080602001828103825260198152602001807f496e76616c696420696e64696361746f7220616464726573730000000000000081525060200191505060405180910390fd5b6000600560008373ffffffffffffffffffffffffffffffffffffffff1673ffffffffffffffffffffffffffffffffffffffff1681526020019081526020016000205411612666576040517f08c379a00000000000000000000000000000000000000000000000000000000081526004018080602001828103825260198152602001807f496e76616c696420696e64696361746f7220616464726573730000000000000081525060200191505060405180910390fd5b6000600960008373ffffffffffffffffffffffffffffffffffffffff1673ffffffffffffffffffffffffffffffffffffffff16815260200190815260200160002060003373ffffffffffffffffffffffffffffffffffffffff1673ffffffffffffffffffffffffffffffffffffffff1681526020019081526020016000205414612758576040517f08c379a00000000000000000000000000000000000000000000000000000000081526004018080602001828103825260208152602001807f416c726561647920707572636861736564207468697320696e64696361746f7281525060200191505060405180910390fd5b6000808273ffffffffffffffffffffffffffffffffffffffff16637d6760bf6040518163ffffffff1660e01b8152600401604080518083038186803b1580156127a057600080fd5b505afa1580156127b4573d6000803e3d6000fd5b505050506040513d60408110156127ca57600080fd5b810190808051906020019092919080519060200190929190505050915091507f000000000000000000000000000000000000000000000000000000000000000073ffffffffffffffffffffffffffffffffffffffff166323b872dd3383856040518463ffffffff1660e01b8152600401808473ffffffffffffffffffffffffffffffffffffffff1681526020018373ffffffffffffffffffffffffffffffffffffffff1681526020018281526020019350505050602060405180830381600087803b15801561289857600080fd5b505af11580156128ac573d6000803e3d6000fd5b505050506040513d60208110156128c257600080fd5b810190808051906020019092919050505050600560008473ffffffffffffffffffffffffffffffffffffffff1673ffffffffffffffffffffffffffffffffffffffff16815260200190815260200160002054600960008573ffffffffffffffffffffffffffffffffffffffff1673ffffffffffffffffffffffffffffffffffffffff16815260200190815260200160002060003373ffffffffffffffffffffffffffffffffffffffff1673ffffffffffffffffffffffffffffffffffffffff16815260200190815260200160002081905550600760003373ffffffffffffffffffffffffffffffffffffffff1673ffffffffffffffffffffffffffffffffffffffff1681526020019081526020016000206001600560008673ffffffffffffffffffffffffffffffffffffffff1673ffffffffffffffffffffffffffffffffffffffff16815260200190815260200160002054039080600181540180825580915050600190039060005260206000200160009091909190915055505050565b60076020528160005260406000208181548110612a5a57fe5b90600052602060002001600091509150505481565b60606002805480602002602001604051908101604052809291908181526020018280548015612af357602002820191906000526020600020905b8160009054906101000a900473ffffffffffffffffffffffffffffffffffffffff1673ffffffffffffffffffffffffffffffffffffffff1681526020019060010190808311612aa9575b5050505050905090565b612b05611f63565b612b0e57600080fd5b600073ffffffffffffffffffffffffffffffffffffffff168173ffffffffffffffffffffffffffffffffffffffff161415612bb1576040517f08c379a000000000000000000000000000000000000000000000000000000000815260040180806020018281038252601a8152602001807f496e76616c696420636f6d70617261746f72206164647265737300000000000081525060200191505060405180910390fd5b8115612c84576002819080600181540180825580915050600190039060005260206000200160009091909190916101000a81548173ffffffffffffffffffffffffffffffffffffffff021916908373ffffffffffffffffffffffffffffffffffffffff1602179055507fda4a97a985e3f894777d71386acac2b59cbb8f8acdd5a6cbe492b46dac21b3958160016002805490500342604051808473ffffffffffffffffffffffffffffffffffffffff168152602001838152602001828152602001935050505060405180910390a1612f1a565b60008173ffffffffffffffffffffffffffffffffffffffff16637d6760bf6040518163ffffffff1660e01b8152600401604080518083038186803b158015612ccb57600080fd5b505afa158015612cdf573d6000803e3d6000fd5b505050506040513d6040811015612cf557600080fd5b8101908080519060200190929190805190602001909291905050509150506004829080600181540180825580915050600190039060005260206000200160009091909190916101000a81548173ffffffffffffffffffffffffffffffffffffffff021916908373ffffffffffffffffffffffffffffffffffffffff160217905550600480549050600660008473ffffffffffffffffffffffffffffffffffffffff1673ffffffffffffffffffffffffffffffffffffffff16815260200190815260200160002081905550600860008273ffffffffffffffffffffffffffffffffffffffff1673ffffffffffffffffffffffffffffffffffffffff1681526020019081526020016000206001600480549050039080600181540180825580915050600190039060005260206000200160009091909190915055600480549050600a60008473ffffffffffffffffffffffffffffffffffffffff1673ffffffffffffffffffffffffffffffffffffffff16815260200190815260200160002060008373ffffffffffffffffffffffffffffffffffffffff1673ffffffffffffffffffffffffffffffffffffffff168152602001908152602001600020819055507fda4a97a985e3f894777d71386acac2b59cbb8f8acdd5a6cbe492b46dac21b3958260016004805490500342604051808473ffffffffffffffffffffffffffffffffffffffff168152602001838152602001828152602001935050505060405180910390a1505b5050565b612f26611f63565b612f2f57600080fd5b612f38816130d1565b50565b600082156130095760008210158015612f58575060028054905082105b612fca576040517f08c379a00000000000000000000000000000000000000000000000000000000081526004018080602001828103825260128152602001807f496e646578206f7574206f662072616e6765000000000000000000000000000081525060200191505060405180910390fd5b60028281548110612fd757fe5b9060005260206000200160009054906101000a900473ffffffffffffffffffffffffffffffffffffffff1690506130cb565b6000821015801561301e575060048054905082105b613090576040517f08c379a00000000000000000000000000000000000000000000000000000000081526004018080602001828103825260128152602001807f496e646578206f7574206f662072616e6765000000000000000000000000000081525060200191505060405180910390fd5b6004828154811061309d57fe5b9060005260206000200160009054906101000a900473ffffffffffffffffffffffffffffffffffffffff1690505b92915050565b600073ffffffffffffffffffffffffffffffffffffffff168173ffffffffffffffffffffffffffffffffffffffff16141561310b57600080fd5b8073ffffffffffffffffffffffffffffffffffffffff1660008054906101000a900473ffffffffffffffffffffffffffffffffffffffff1673ffffffffffffffffffffffffffffffffffffffff167f8be0079c531659141344cd1fd0a4f28419497f9722a3daafe3b4186f6b6457e060405160405180910390a3806000806101000a81548173ffffffffffffffffffffffffffffffffffffffff021916908373ffffffffffffffffffffffffffffffffffffffff1602179055505056fe416c726561647920707572636861736564207468697320636f6d70617261746f72a2646970667358221220d07336c7ae8f9f2c23093d5ff247eb141bbd60fd2109cc60352b1fa9b7858ce264736f6c634300060c0033",
  "immutableReferences": {
    "12": [
      {
        "length": 32,
        "start": 3979
      },
      {
        "length": 32,
        "start": 10219
      }
    ]
  },
  "source": "pragma solidity >=0.5.0;\r\n\r\n//Inheritance\r\nimport './Ownable.sol';\r\n\r\n//Interfaces\r\nimport './interfaces/IIndicator.sol';\r\nimport './interfaces/IComparator.sol';\r\nimport './interfaces/IERC20.sol';\r\n\r\n//Inheritance\r\nimport './interfaces/IComponents.sol';\r\n\r\ncontract Components is IComponents, Ownable {\r\n\r\n    IERC20 private immutable TRADEGEN;\r\n\r\n    address[] public defaultIndicators;\r\n    address[] public defaultComparators;\r\n    address[] public indicators;\r\n    address[] public comparators;\r\n\r\n    mapping (address => uint) public indicatorAddressToIndex; //maps to (index + 1); index 0 represents indicator address not valid\r\n    mapping (address => uint) public comparatorAddressToIndex; //maps to (index + 1); index 0 represents comparator address not valid\r\n\r\n    mapping (address => uint[]) public userPurchasedIndicators;\r\n    mapping (address => uint[]) public userPurchasedComparators;\r\n\r\n    mapping (address => mapping (address => uint)) public indicatorUsers; //maps to (index + 1); index 0 represents indicator not purchased by user\r\n    mapping (address => mapping (address => uint)) public comparatorUsers; //maps to (index + 1); index 0 represents comparator not purchased by user\r\n\r\n    constructor(IERC20 baseTradegen) public {\r\n        TRADEGEN = baseTradegen;\r\n    }\r\n\r\n    /* ========== VIEWS ========== */\r\n\r\n    /**\r\n    * @dev Returns the address of the indicator\r\n    * @param isDefault Whether the indicator is a default indicator\r\n    * @param index Index of the indicator in array of available indicators\r\n    * @return address Address of the indicator\r\n    */\r\n    function getIndicatorFromIndex(bool isDefault, uint index) public view override returns (address) {\r\n        if (isDefault)\r\n        {\r\n            require(index >= 0 && index < defaultIndicators.length, \"Index out of range\");\r\n\r\n            return defaultIndicators[index];\r\n        }\r\n        else\r\n        {\r\n            require(index >= 0 && index < indicators.length, \"Index out of range\");\r\n\r\n            return indicators[index];\r\n        }\r\n    }\r\n\r\n    /**\r\n    * @dev Returns the address of the comparator\r\n    * @param isDefault Whether the comparator is a default comparator\r\n    * @param index Index of the comparator in array of available comparator\r\n    * @return address Address of the comparator\r\n    */\r\n    function getComparatorFromIndex(bool isDefault, uint index) public view override returns (address) {\r\n        if (isDefault)\r\n        {\r\n            require(index >= 0 && index < defaultComparators.length, \"Index out of range\");\r\n\r\n            return defaultComparators[index];\r\n        }\r\n        else\r\n        {\r\n            require(index >= 0 && index < comparators.length, \"Index out of range\");\r\n\r\n            return comparators[index];\r\n        }\r\n    }\r\n\r\n    /**\r\n    * @dev Returns the address of each default indicator\r\n    * @return address[] The addresses of available default indicators\r\n    */\r\n    function getDefaultIndicators() public view override returns (address[] memory) {\r\n        return defaultIndicators;\r\n    }\r\n\r\n    /**\r\n    * @dev Returns the address of each custom indicator\r\n    * @return address[] The addresses of available custom indicators\r\n    */\r\n    function getIndicators() public view override returns (address[] memory) {\r\n        return indicators;\r\n    }\r\n\r\n    /**\r\n    * @dev Returns the address of each default comparator\r\n    * @return address[] The addresses of available default comparator\r\n    */\r\n    function getDefaultComparators() public view override returns (address[] memory) {\r\n        return defaultComparators;\r\n    }\r\n\r\n    /**\r\n    * @dev Returns the address of each custom comparator\r\n    * @return address[] The addresses of available custom comparator\r\n    */\r\n    function getComparators() public view override returns (address[] memory) {\r\n        return comparators;\r\n    }\r\n\r\n    /**\r\n    * @dev Returns index of each indicator the user purchased\r\n    * @param user Address of the user\r\n    * @return uint[] The index in indicators array of each indicator the user purchased\r\n    */\r\n    function getUserPurchasedIndicators(address user) public view override returns (address[] memory) {\r\n        require(user != address(0), \"Invalid user address\");\r\n\r\n        uint length = defaultIndicators.length + userPurchasedIndicators[user].length;\r\n        address[] memory temp = new address[](length);\r\n\r\n        for (uint i = 0; i < defaultIndicators.length; i++)\r\n        {\r\n            temp[i] = defaultIndicators[i];\r\n        }\r\n\r\n        for (uint i = 0; i < userPurchasedIndicators[user].length; i++)\r\n        {\r\n            uint index = userPurchasedIndicators[user][i];\r\n            temp[defaultIndicators.length + i] = indicators[index];\r\n        }\r\n\r\n        return temp;\r\n    }\r\n\r\n    /**\r\n    * @dev Returns index of each comparator the user purchased\r\n    * @param user Address of the user\r\n    * @return uint[] The index in comparators array of each comparator the user purchased\r\n    */\r\n    function getUserPurchasedComparators(address user) public view override returns (address[] memory) {\r\n        require(user != address(0), \"Invalid user address\");\r\n\r\n        uint length = defaultComparators.length + userPurchasedComparators[user].length;\r\n        address[] memory temp = new address[](length);\r\n\r\n        for (uint i = 0; i < defaultComparators.length; i++)\r\n        {\r\n            temp[i] = defaultComparators[i];\r\n        }\r\n\r\n        for (uint i = 0; i < userPurchasedComparators[user].length; i++)\r\n        {\r\n            uint index = userPurchasedComparators[user][i];\r\n            temp[defaultComparators.length + i] = comparators[index];\r\n        }\r\n\r\n        return temp;\r\n    }\r\n\r\n    /**\r\n    * @dev Checks whether the user purchased the given indicator\r\n    * @param user Address of the user\r\n    * @param indicatorIndex Index of the indicator in the indicators array\r\n    * @return bool Whether the user purchased the given indicator\r\n    */\r\n    function checkIfUserPurchasedIndicator(address user, uint indicatorIndex) public view override returns (bool) {\r\n        require(user != address(0), \"Invalid user address\");\r\n        require(indicatorIndex >= 0 && indicatorIndex < indicators.length, \"Indicator index out of range\");\r\n\r\n        address indicatorAddress = indicators[indicatorIndex];\r\n\r\n        return indicatorUsers[indicatorAddress][user] > 0;\r\n    }\r\n\r\n    /**\r\n    * @dev Checks whether the user purchased the given comparator\r\n    * @param user Address of the user\r\n    * @param comparatorIndex Index of the comparator in the comparators array\r\n    * @return bool Whether the user purchased the given comparator\r\n    */\r\n    function checkIfUserPurchasedComparator(address user, uint comparatorIndex) public view override returns (bool) {\r\n        require(user != address(0), \"Invalid user address\");\r\n        require(comparatorIndex >= 0 && comparatorIndex < comparators.length, \"Comparators index out of range\");\r\n\r\n        address comparatorAddress = comparators[comparatorIndex];\r\n\r\n        return comparatorUsers[comparatorAddress][user] > 0;\r\n    }\r\n\r\n    /* ========== INTERNAL FUNCTIONS ========== */\r\n\r\n    /**\r\n    * @dev Adds default indicators and comparators to the given user\r\n    * @param user Address of user to add default indicators and comparators to\r\n    */\r\n    function _addDefaultComponentsToUser(address user) internal {\r\n        require(user != address(0), \"Invalid user address\");\r\n\r\n        //Add default indicators to the user's array of purchased indicators\r\n        for (uint i = 0; i < defaultIndicators.length; i++)\r\n        {\r\n            userPurchasedIndicators[user].push(indicatorAddressToIndex[defaultIndicators[i]] - 1);\r\n            indicatorUsers[defaultIndicators[i]][user] = indicatorAddressToIndex[defaultIndicators[i]];\r\n        }\r\n\r\n        //Add default comparators to the user's array of purchased comparators\r\n        for (uint i = 0; i < defaultComparators.length; i++)\r\n        {\r\n            userPurchasedComparators[user].push(comparatorAddressToIndex[defaultComparators[i]] - 1);\r\n            comparatorUsers[defaultComparators[i]][user] = comparatorAddressToIndex[defaultComparators[i]];\r\n        }\r\n    }\r\n\r\n    /* ========== MUTATIVE FUNCTIONS ========== */\r\n\r\n    /**\r\n    * @dev Purchase the given indicator\r\n    * @param indicatorAddress Address of the indicator to purchase\r\n    */\r\n    function buyIndicator(address indicatorAddress) public override {\r\n        require(indicatorAddress != address(0), \"Invalid indicator address\");\r\n        require(indicatorAddressToIndex[indicatorAddress] > 0, \"Invalid indicator address\");\r\n        require(indicatorUsers[indicatorAddress][msg.sender] == 0, \"Already purchased this indicator\");\r\n\r\n        (uint price, address developer) = IIndicator(indicatorAddress).getPriceAndDeveloper();\r\n\r\n        //Send TGEN payment to indicator's developer; call TradegenERC20.approve() on frontend before sending transaction\r\n        TRADEGEN.transferFrom(msg.sender, developer, price);\r\n\r\n        indicatorUsers[indicatorAddress][msg.sender] = indicatorAddressToIndex[indicatorAddress];\r\n        userPurchasedIndicators[msg.sender].push(indicatorAddressToIndex[indicatorAddress] - 1);\r\n    }\r\n\r\n    /**\r\n    * @dev Purchase the given comparator\r\n    * @param comparatorAddress Address of the comparator to purchase\r\n    */\r\n    function buyComparator(address comparatorAddress) public override {\r\n        require(comparatorAddress != address(0), \"Invalid comparator address\");\r\n        require(comparatorAddressToIndex[comparatorAddress] > 0, \"Invalid comparator address\");\r\n        require(comparatorUsers[comparatorAddress][msg.sender] == 0, \"Already purchased this comparator\");\r\n\r\n        (uint price, address developer) = IComparator(comparatorAddress).getPriceAndDeveloper();\r\n\r\n        //Send TGEN payment to comparator's developer; call TradegenERC20.approve() on frontend before sending transaction\r\n        TRADEGEN.transferFrom(msg.sender, developer, price);\r\n\r\n        comparatorUsers[comparatorAddress][msg.sender] = comparatorAddressToIndex[comparatorAddress];\r\n        userPurchasedComparators[msg.sender].push(comparatorAddressToIndex[comparatorAddress] - 1);\r\n    }\r\n\r\n    /* ========== RESTRICTED FUNCTIONS ========== */\r\n\r\n    /**\r\n    * @dev Adds a new indicator to the platform\r\n    * @param isDefault Whether the added indicator is a default indicator\r\n    * @param indicatorAddress Address of the contract where the indicator is implemented\r\n    */\r\n    function _addNewIndicator(bool isDefault, address indicatorAddress) public override onlyOwner {\r\n        require(indicatorAddress != address(0), \"Invalid indicator address\");\r\n\r\n        if (isDefault)\r\n        {\r\n            defaultIndicators.push(indicatorAddress);\r\n\r\n            emit AddedIndicator(indicatorAddress, defaultIndicators.length - 1, block.timestamp);\r\n        }\r\n        else\r\n        {\r\n            (, address developer) = IIndicator(indicatorAddress).getPriceAndDeveloper();\r\n\r\n            indicators.push(indicatorAddress);\r\n            indicatorAddressToIndex[indicatorAddress] = indicators.length;\r\n            userPurchasedIndicators[developer].push(indicators.length - 1);\r\n            indicatorUsers[indicatorAddress][developer] = indicators.length;\r\n\r\n            emit AddedIndicator(indicatorAddress, indicators.length - 1, block.timestamp);\r\n        }\r\n    }\r\n\r\n    /**\r\n    * @dev Adds a new comparator to the platform\r\n    * @param isDefault Whether the added comparator is a default indicator\r\n    * @param comparatorAddress Address of the contract where the comparator is implemented\r\n    */\r\n    function _addNewComparator(bool isDefault, address comparatorAddress) public override onlyOwner {\r\n        require(comparatorAddress != address(0), \"Invalid comparator address\");\r\n\r\n        if (isDefault)\r\n        {\r\n            defaultComparators.push(comparatorAddress);\r\n\r\n            emit AddedComparator(comparatorAddress, defaultComparators.length - 1, block.timestamp);\r\n        }\r\n        else\r\n        {\r\n            (, address developer) = IComparator(comparatorAddress).getPriceAndDeveloper();\r\n\r\n            comparators.push(comparatorAddress);\r\n            comparatorAddressToIndex[comparatorAddress] = comparators.length;\r\n            userPurchasedComparators[developer].push(comparators.length - 1);\r\n            comparatorUsers[comparatorAddress][developer] = comparators.length;\r\n\r\n            emit AddedComparator(comparatorAddress, comparators.length - 1, block.timestamp);\r\n        }\r\n    }\r\n\r\n    /* ========== EVENTS ========== */\r\n\r\n    event AddedIndicator(address indicatorAddress, uint indicatorindex, uint timestamp);\r\n    event AddedComparator(address comparatorAddress, uint comparatorindex, uint timestamp);\r\n\r\n    event Lengths(uint defaultLength, uint purchasedLength); //test\r\n    event PurchasedIndicators(uint[] purchasedIndicators); //test\r\n}",
  "sourcePath": "C:/Users/xavie/OneDrive/Desktop/TradeGen/Github/tradegen/contracts/Components.sol",
  "compiler": {
    "name": "solc",
    "version": "0.6.12+commit.27d51765.Emscripten.clang"
  },
  "schemaVersion": "3.4.1",
  "updatedAt": "2021-07-08T19:07:06.092Z",
  "devdoc": {
    "kind": "dev",
    "methods": {
      "_addNewComparator(bool,address)": {
        "details": "Adds a new comparator to the platform",
        "params": {
          "comparatorAddress": "Address of the contract where the comparator is implemented",
          "isDefault": "Whether the added comparator is a default indicator"
        }
      },
      "_addNewIndicator(bool,address)": {
        "details": "Adds a new indicator to the platform",
        "params": {
          "indicatorAddress": "Address of the contract where the indicator is implemented",
          "isDefault": "Whether the added indicator is a default indicator"
        }
      },
      "buyComparator(address)": {
        "details": "Purchase the given comparator",
        "params": {
          "comparatorAddress": "Address of the comparator to purchase"
        }
      },
      "buyIndicator(address)": {
        "details": "Purchase the given indicator",
        "params": {
          "indicatorAddress": "Address of the indicator to purchase"
        }
      },
      "checkIfUserPurchasedComparator(address,uint256)": {
        "details": "Checks whether the user purchased the given comparator",
        "params": {
          "comparatorIndex": "Index of the comparator in the comparators array",
          "user": "Address of the user"
        },
        "returns": {
          "_0": "bool Whether the user purchased the given comparator"
        }
      },
      "checkIfUserPurchasedIndicator(address,uint256)": {
        "details": "Checks whether the user purchased the given indicator",
        "params": {
          "indicatorIndex": "Index of the indicator in the indicators array",
          "user": "Address of the user"
        },
        "returns": {
          "_0": "bool Whether the user purchased the given indicator"
        }
      },
      "getComparatorFromIndex(bool,uint256)": {
        "details": "Returns the address of the comparator",
        "params": {
          "index": "Index of the comparator in array of available comparator",
          "isDefault": "Whether the comparator is a default comparator"
        },
        "returns": {
          "_0": "address Address of the comparator"
        }
      },
      "getComparators()": {
        "details": "Returns the address of each custom comparator",
        "returns": {
          "_0": "address[] The addresses of available custom comparator"
        }
      },
      "getDefaultComparators()": {
        "details": "Returns the address of each default comparator",
        "returns": {
          "_0": "address[] The addresses of available default comparator"
        }
      },
      "getDefaultIndicators()": {
        "details": "Returns the address of each default indicator",
        "returns": {
          "_0": "address[] The addresses of available default indicators"
        }
      },
      "getIndicatorFromIndex(bool,uint256)": {
        "details": "Returns the address of the indicator",
        "params": {
          "index": "Index of the indicator in array of available indicators",
          "isDefault": "Whether the indicator is a default indicator"
        },
        "returns": {
          "_0": "address Address of the indicator"
        }
      },
      "getIndicators()": {
        "details": "Returns the address of each custom indicator",
        "returns": {
          "_0": "address[] The addresses of available custom indicators"
        }
      },
      "getUserPurchasedComparators(address)": {
        "details": "Returns index of each comparator the user purchased",
        "params": {
          "user": "Address of the user"
        },
        "returns": {
          "_0": "uint[] The index in comparators array of each comparator the user purchased"
        }
      },
      "getUserPurchasedIndicators(address)": {
        "details": "Returns index of each indicator the user purchased",
        "params": {
          "user": "Address of the user"
        },
        "returns": {
          "_0": "uint[] The index in indicators array of each indicator the user purchased"
        }
      },
      "isOwner()": {
        "returns": {
          "_0": "true if `msg.sender` is the owner of the contract."
        }
      },
      "owner()": {
        "returns": {
          "_0": "the address of the owner."
        }
      },
      "renounceOwnership()": {
        "details": "Allows the current owner to relinquish control of the contract."
      },
      "transferOwnership(address)": {
        "details": "Allows the current owner to transfer control of the contract to a newOwner.",
        "params": {
          "newOwner": "The address to transfer ownership to."
        }
      }
    },
    "version": 1
  },
  "userdoc": {
    "kind": "user",
    "methods": {
      "renounceOwnership()": {
        "notice": "Renouncing to ownership will leave the contract without an owner. It will not be possible to call the functions with the `onlyOwner` modifier anymore."
      }
    },
    "version": 1
  }
}