{
  "contractName": "FeePool",
  "abi": [
    {
      "inputs": [
        {
          "internalType": "contract IAddressResolver",
          "name": "_addressResolver",
          "type": "address"
        }
      ],
      "stateMutability": "nonpayable",
      "type": "constructor"
    },
    {
      "anonymous": false,
      "inputs": [
        {
          "indexed": false,
          "internalType": "address",
          "name": "user",
          "type": "address"
        },
        {
          "indexed": false,
          "internalType": "uint256",
          "name": "numberOfFeeTokens",
          "type": "uint256"
        },
        {
          "indexed": false,
          "internalType": "uint256",
          "name": "timestamp",
          "type": "uint256"
        }
      ],
      "name": "AddedFees",
      "type": "event"
    },
    {
      "anonymous": false,
      "inputs": [
        {
          "indexed": false,
          "internalType": "address",
          "name": "user",
          "type": "address"
        },
        {
          "indexed": false,
          "internalType": "address",
          "name": "currencyKey",
          "type": "address"
        },
        {
          "indexed": false,
          "internalType": "uint256",
          "name": "amountInUSD",
          "type": "uint256"
        },
        {
          "indexed": false,
          "internalType": "uint256",
          "name": "timestamp",
          "type": "uint256"
        }
      ],
      "name": "ClaimedFees",
      "type": "event"
    },
    {
      "anonymous": false,
      "inputs": [
        {
          "indexed": true,
          "internalType": "address",
          "name": "previousOwner",
          "type": "address"
        },
        {
          "indexed": true,
          "internalType": "address",
          "name": "newOwner",
          "type": "address"
        }
      ],
      "name": "OwnershipTransferred",
      "type": "event"
    },
    {
      "inputs": [],
      "name": "ADDRESS_RESOLVER",
      "outputs": [
        {
          "internalType": "contract IAddressResolver",
          "name": "",
          "type": "address"
        }
      ],
      "stateMutability": "view",
      "type": "function"
    },
    {
      "inputs": [
        {
          "internalType": "address",
          "name": "",
          "type": "address"
        }
      ],
      "name": "balances",
      "outputs": [
        {
          "internalType": "uint256",
          "name": "",
          "type": "uint256"
        }
      ],
      "stateMutability": "view",
      "type": "function"
    },
    {
      "inputs": [],
      "name": "isOwner",
      "outputs": [
        {
          "internalType": "bool",
          "name": "",
          "type": "bool"
        }
      ],
      "stateMutability": "view",
      "type": "function"
    },
    {
      "inputs": [],
      "name": "owner",
      "outputs": [
        {
          "internalType": "address",
          "name": "",
          "type": "address"
        }
      ],
      "stateMutability": "view",
      "type": "function"
    },
    {
      "inputs": [
        {
          "internalType": "uint256",
          "name": "",
          "type": "uint256"
        }
      ],
      "name": "positionKeys",
      "outputs": [
        {
          "internalType": "address",
          "name": "",
          "type": "address"
        }
      ],
      "stateMutability": "view",
      "type": "function"
    },
    {
      "inputs": [],
      "name": "renounceOwnership",
      "outputs": [],
      "stateMutability": "nonpayable",
      "type": "function"
    },
    {
      "inputs": [],
      "name": "totalSupply",
      "outputs": [
        {
          "internalType": "uint256",
          "name": "",
          "type": "uint256"
        }
      ],
      "stateMutability": "view",
      "type": "function"
    },
    {
      "inputs": [
        {
          "internalType": "address",
          "name": "newOwner",
          "type": "address"
        }
      ],
      "name": "transferOwnership",
      "outputs": [],
      "stateMutability": "nonpayable",
      "type": "function"
    },
    {
      "inputs": [
        {
          "internalType": "address",
          "name": "account",
          "type": "address"
        }
      ],
      "name": "getTokenBalance",
      "outputs": [
        {
          "internalType": "uint256",
          "name": "",
          "type": "uint256"
        }
      ],
      "stateMutability": "view",
      "type": "function"
    },
    {
      "inputs": [],
      "name": "getPositionsAndTotal",
      "outputs": [
        {
          "internalType": "address[]",
          "name": "",
          "type": "address[]"
        },
        {
          "internalType": "uint256[]",
          "name": "",
          "type": "uint256[]"
        },
        {
          "internalType": "uint256",
          "name": "",
          "type": "uint256"
        }
      ],
      "stateMutability": "view",
      "type": "function"
    },
    {
      "inputs": [],
      "name": "getPoolBalance",
      "outputs": [
        {
          "internalType": "uint256",
          "name": "",
          "type": "uint256"
        }
      ],
      "stateMutability": "view",
      "type": "function"
    },
    {
      "inputs": [
        {
          "internalType": "address",
          "name": "user",
          "type": "address"
        }
      ],
      "name": "getUSDBalance",
      "outputs": [
        {
          "internalType": "uint256",
          "name": "",
          "type": "uint256"
        }
      ],
      "stateMutability": "view",
      "type": "function"
    },
    {
      "inputs": [
        {
          "internalType": "address",
          "name": "currencyKey",
          "type": "address"
        },
        {
          "internalType": "uint256",
          "name": "amountInUSD",
          "type": "uint256"
        }
      ],
      "name": "claimAvailableFees",
      "outputs": [],
      "stateMutability": "nonpayable",
      "type": "function"
    },
    {
      "inputs": [
        {
          "internalType": "address",
          "name": "user",
          "type": "address"
        },
        {
          "internalType": "uint256",
          "name": "numberOfFeeTokens",
          "type": "uint256"
        }
      ],
      "name": "addFees",
      "outputs": [],
      "stateMutability": "nonpayable",
      "type": "function"
    }
  ],
  "bytecode": "0x60a060405234801561001057600080fd5b50604051611bb3380380611bb38339818101604052602081101561003357600080fd5b8101908080519060200190929190505050336000806101000a81548173ffffffffffffffffffffffffffffffffffffffff021916908373ffffffffffffffffffffffffffffffffffffffff16021790555060008054906101000a900473ffffffffffffffffffffffffffffffffffffffff1673ffffffffffffffffffffffffffffffffffffffff16600073ffffffffffffffffffffffffffffffffffffffff167f8be0079c531659141344cd1fd0a4f28419497f9722a3daafe3b4186f6b6457e060405160405180910390a38073ffffffffffffffffffffffffffffffffffffffff1660808173ffffffffffffffffffffffffffffffffffffffff1660601b815250505060805160601c611a4b610168600039806104b3528061057b5280610c695280610da852806113df5250611a4b6000f3fe608060405234801561001057600080fd5b50600436106100ea5760003560e01c80638da5cb5b1161008c578063a210c95b11610066578063a210c95b1461034d578063abd70aa21461039b578063ac08c574146103b9578063f2fde38b14610467576100ea565b80638da5cb5b146102c55780638f32d59b146102f9578063981f3b8e14610319576100ea565b806327e235e3116100c857806327e235e3146101b35780632895a2b31461020b5780633aecd0e314610263578063715018a6146102bb576100ea565b806318160ddd146100ef5780631dfb9aae1461010d5780632322e3b91461015b575b600080fd5b6100f76104ab565b6040518082815260200191505060405180910390f35b6101596004803603604081101561012357600080fd5b81019080803573ffffffffffffffffffffffffffffffffffffffff169060200190929190803590602001909291905050506104b1565b005b61019d6004803603602081101561017157600080fd5b81019080803573ffffffffffffffffffffffffffffffffffffffff1690602001909291905050506108bb565b6040518082815260200191505060405180910390f35b6101f5600480360360208110156101c957600080fd5b81019080803573ffffffffffffffffffffffffffffffffffffffff1690602001909291905050506109d9565b6040518082815260200191505060405180910390f35b6102376004803603602081101561022157600080fd5b81019080803590602001909291905050506109f1565b604051808273ffffffffffffffffffffffffffffffffffffffff16815260200191505060405180910390f35b6102a56004803603602081101561027957600080fd5b81019080803573ffffffffffffffffffffffffffffffffffffffff169060200190929190505050610a2d565b6040518082815260200191505060405180910390f35b6102c3610b18565b005b6102cd610be7565b604051808273ffffffffffffffffffffffffffffffffffffffff16815260200191505060405180910390f35b610301610c10565b60405180821515815260200191505060405180910390f35b610321610c67565b604051808273ffffffffffffffffffffffffffffffffffffffff16815260200191505060405180910390f35b6103996004803603604081101561036357600080fd5b81019080803573ffffffffffffffffffffffffffffffffffffffff16906020019092919080359060200190929190505050610c8b565b005b6103a36113c1565b6040518082815260200191505060405180910390f35b6103c16113d7565b604051808060200180602001848152602001838103835286818151815260200191508051906020019060200280838360005b8381101561040e5780820151818401526020810190506103f3565b50505050905001838103825285818151815260200191508051906020019060200280838360005b83811015610450578082015181840152602081019050610435565b505050509050019550505050505060405180910390f35b6104a96004803603602081101561047d57600080fd5b81019080803573ffffffffffffffffffffffffffffffffffffffff169060200190929190505050611819565b005b60035481565b7f000000000000000000000000000000000000000000000000000000000000000073ffffffffffffffffffffffffffffffffffffffff1663e51f8aba336040518263ffffffff1660e01b8152600401808273ffffffffffffffffffffffffffffffffffffffff16815260200191505060206040518083038186803b15801561053857600080fd5b505afa15801561054c573d6000803e3d6000fd5b505050506040513d602081101561056257600080fd5b81019080805190602001909291905050508061063c57507f000000000000000000000000000000000000000000000000000000000000000073ffffffffffffffffffffffffffffffffffffffff1663debd7e8e336040518263ffffffff1660e01b8152600401808273ffffffffffffffffffffffffffffffffffffffff16815260200191505060206040518083038186803b15801561060057600080fd5b505afa158015610614573d6000803e3d6000fd5b505050506040513d602081101561062a57600080fd5b81019080805190602001909291905050505b610691576040517f08c379a00000000000000000000000000000000000000000000000000000000081526004018080602001828103825260398152602001806119dd6039913960400191505060405180910390fd5b60008111610707576040517f08c379a000000000000000000000000000000000000000000000000000000000815260040180806020018281038252601d8152602001807f416d6f756e74206d7573742062652067726561746572207468616e203000000081525060200191505060405180910390fd5b600073ffffffffffffffffffffffffffffffffffffffff168273ffffffffffffffffffffffffffffffffffffffff1614156107aa576040517f08c379a000000000000000000000000000000000000000000000000000000000815260040180806020018281038252600f8152602001807f496e76616c69642061646472657373000000000000000000000000000000000081525060200191505060405180910390fd5b6107fc81600160008573ffffffffffffffffffffffffffffffffffffffff1673ffffffffffffffffffffffffffffffffffffffff1681526020019081526020016000205461183690919063ffffffff16565b600160008473ffffffffffffffffffffffffffffffffffffffff1673ffffffffffffffffffffffffffffffffffffffff168152602001908152602001600020819055506108548160035461183690919063ffffffff16565b6003819055507f518f07bfa10648ee8d2f2a8fcb7840ca5e386686d906b282bc58e68b28828770828242604051808473ffffffffffffffffffffffffffffffffffffffff168152602001838152602001828152602001935050505060405180910390a15050565b60008073ffffffffffffffffffffffffffffffffffffffff168273ffffffffffffffffffffffffffffffffffffffff16141561095f576040517f08c379a000000000000000000000000000000000000000000000000000000000815260040180806020018281038252600f8152602001807f496e76616c69642061646472657373000000000000000000000000000000000081525060200191505060405180910390fd5b60006109696113c1565b90506109d16003546109c3600160008773ffffffffffffffffffffffffffffffffffffffff1673ffffffffffffffffffffffffffffffffffffffff168152602001908152602001600020548461185290919063ffffffff16565b61188990919063ffffffff16565b915050919050565b60016020528060005260406000206000915090505481565b600281815481106109fe57fe5b906000526020600020016000915054906101000a900473ffffffffffffffffffffffffffffffffffffffff1681565b60008073ffffffffffffffffffffffffffffffffffffffff168273ffffffffffffffffffffffffffffffffffffffff161415610ad1576040517f08c379a000000000000000000000000000000000000000000000000000000000815260040180806020018281038252600f8152602001807f496e76616c69642061646472657373000000000000000000000000000000000081525060200191505060405180910390fd5b600160008373ffffffffffffffffffffffffffffffffffffffff1673ffffffffffffffffffffffffffffffffffffffff168152602001908152602001600020549050919050565b610b20610c10565b610b2957600080fd5b600073ffffffffffffffffffffffffffffffffffffffff1660008054906101000a900473ffffffffffffffffffffffffffffffffffffffff1673ffffffffffffffffffffffffffffffffffffffff167f8be0079c531659141344cd1fd0a4f28419497f9722a3daafe3b4186f6b6457e060405160405180910390a360008060006101000a81548173ffffffffffffffffffffffffffffffffffffffff021916908373ffffffffffffffffffffffffffffffffffffffff160217905550565b60008060009054906101000a900473ffffffffffffffffffffffffffffffffffffffff16905090565b60008060009054906101000a900473ffffffffffffffffffffffffffffffffffffffff1673ffffffffffffffffffffffffffffffffffffffff163373ffffffffffffffffffffffffffffffffffffffff1614905090565b7f000000000000000000000000000000000000000000000000000000000000000081565b600073ffffffffffffffffffffffffffffffffffffffff168273ffffffffffffffffffffffffffffffffffffffff161415610d2e576040517f08c379a00000000000000000000000000000000000000000000000000000000081526004018080602001828103825260148152602001807f496e76616c69642063757272656e6379206b657900000000000000000000000081525060200191505060405180910390fd5b60008111610da4576040517f08c379a000000000000000000000000000000000000000000000000000000000815260040180806020018281038252601d8152602001807f416d6f756e74206d7573742062652067726561746572207468616e203000000081525060200191505060405180910390fd5b60007f000000000000000000000000000000000000000000000000000000000000000073ffffffffffffffffffffffffffffffffffffffff166304433bbc6040518163ffffffff1660e01b81526004018080602001828103825260128152602001807f426173655562657377617041646170746572000000000000000000000000000081525060200191505060206040518083038186803b158015610e4857600080fd5b505afa158015610e5c573d6000803e3d6000fd5b505050506040513d6020811015610e7257600080fd5b810190808051906020019092919050505090506000610e90336108bb565b905060008473ffffffffffffffffffffffffffffffffffffffff166370a08231306040518263ffffffff1660e01b8152600401808273ffffffffffffffffffffffffffffffffffffffff16815260200191505060206040518083038186803b158015610efb57600080fd5b505afa158015610f0f573d6000803e3d6000fd5b505050506040513d6020811015610f2557600080fd5b8101908080519060200190929190505050905060008373ffffffffffffffffffffffffffffffffffffffff166341976e09876040518263ffffffff1660e01b8152600401808273ffffffffffffffffffffffffffffffffffffffff16815260200191505060206040518083038186803b158015610fa157600080fd5b505afa158015610fb5573d6000803e3d6000fd5b505050506040513d6020811015610fcb57600080fd5b810190808051906020019092919050505090506000610ff3828461185290919063ffffffff16565b90508584101561106b576040517f08c379a00000000000000000000000000000000000000000000000000000000081526004018080602001828103825260198152602001807f4e6f7420656e6f756768206665657320617661696c61626c650000000000000081525060200191505060405180910390fd5b858110156110c4576040517f08c379a000000000000000000000000000000000000000000000000000000000815260040180806020018281038252602c8152602001806119b1602c913960400191505060405180910390fd5b60006110ce6113c1565b905060006110e5848961188990919063ffffffff16565b90506000611110836111028b60035461185290919063ffffffff16565b61188990919063ffffffff16565b905061116481600160003373ffffffffffffffffffffffffffffffffffffffff1673ffffffffffffffffffffffffffffffffffffffff168152602001908152602001600020546118a290919063ffffffff16565b600160003373ffffffffffffffffffffffffffffffffffffffff1673ffffffffffffffffffffffffffffffffffffffff168152602001908152602001600020819055506111bc816003546118a290919063ffffffff16565b6003819055508973ffffffffffffffffffffffffffffffffffffffff1663095ea7b333846040518363ffffffff1660e01b8152600401808373ffffffffffffffffffffffffffffffffffffffff16815260200182815260200192505050602060405180830381600087803b15801561123357600080fd5b505af1158015611247573d6000803e3d6000fd5b505050506040513d602081101561125d57600080fd5b8101908080519060200190929190505050508973ffffffffffffffffffffffffffffffffffffffff166323b872dd3033856040518463ffffffff1660e01b8152600401808473ffffffffffffffffffffffffffffffffffffffff1681526020018373ffffffffffffffffffffffffffffffffffffffff1681526020018281526020019350505050602060405180830381600087803b1580156112fe57600080fd5b505af1158015611312573d6000803e3d6000fd5b505050506040513d602081101561132857600080fd5b8101908080519060200190929190505050507f44878741c9a3ffd3f18f77c15d6462b695bab528dee63a6ea7a1c83f3c8ab45c338b8b42604051808573ffffffffffffffffffffffffffffffffffffffff1681526020018473ffffffffffffffffffffffffffffffffffffffff16815260200183815260200182815260200194505050505060405180910390a150505050505050505050565b6000806113cc6113d7565b925050508091505090565b6060806000807f000000000000000000000000000000000000000000000000000000000000000073ffffffffffffffffffffffffffffffffffffffff166304433bbc6040518163ffffffff1660e01b81526004018080602001828103825260128152602001807f426173655562657377617041646170746572000000000000000000000000000081525060200191505060206040518083038186803b15801561147f57600080fd5b505afa158015611493573d6000803e3d6000fd5b505050506040513d60208110156114a957600080fd5b81019080805190602001909291905050509050606060028054905067ffffffffffffffff811180156114da57600080fd5b506040519080825280602002602001820160405280156115095781602001602082028036833780820191505090505b509050606060028054905067ffffffffffffffff8111801561152a57600080fd5b506040519080825280602002602001820160405280156115595781602001602082028036833780820191505090505b5090506000805b600280549050811015611806576002818154811061157a57fe5b9060005260206000200160009054906101000a900473ffffffffffffffffffffffffffffffffffffffff1673ffffffffffffffffffffffffffffffffffffffff166370a08231306040518263ffffffff1660e01b8152600401808273ffffffffffffffffffffffffffffffffffffffff16815260200191505060206040518083038186803b15801561160b57600080fd5b505afa15801561161f573d6000803e3d6000fd5b505050506040513d602081101561163557600080fd5b810190808051906020019092919050505083828151811061165257fe5b6020026020010181815250506002818154811061166b57fe5b9060005260206000200160009054906101000a900473ffffffffffffffffffffffffffffffffffffffff168482815181106116a257fe5b602002602001019073ffffffffffffffffffffffffffffffffffffffff16908173ffffffffffffffffffffffffffffffffffffffff168152505060008573ffffffffffffffffffffffffffffffffffffffff166341976e096002848154811061170757fe5b9060005260206000200160009054906101000a900473ffffffffffffffffffffffffffffffffffffffff166040518263ffffffff1660e01b8152600401808273ffffffffffffffffffffffffffffffffffffffff16815260200191505060206040518083038186803b15801561177c57600080fd5b505afa158015611790573d6000803e3d6000fd5b505050506040513d60208110156117a657600080fd5b8101908080519060200190929190505050905060006117e18584815181106117ca57fe5b60200260200101518361185290919063ffffffff16565b90506117f6818561183690919063ffffffff16565b5050508080600101915050611560565b5082828296509650965050505050909192565b611821610c10565b61182a57600080fd5b611833816118b9565b50565b60008082840190508381101561184857fe5b8091505092915050565b6000808314156118655760009050611883565b600082840290508284828161187657fe5b041461187e57fe5b809150505b92915050565b60008082848161189557fe5b0490508091505092915050565b6000828211156118ae57fe5b818303905092915050565b600073ffffffffffffffffffffffffffffffffffffffff168173ffffffffffffffffffffffffffffffffffffffff1614156118f357600080fd5b8073ffffffffffffffffffffffffffffffffffffffff1660008054906101000a900473ffffffffffffffffffffffffffffffffffffffff1673ffffffffffffffffffffffffffffffffffffffff167f8be0079c531659141344cd1fd0a4f28419497f9722a3daafe3b4186f6b6457e060405160405180910390a3806000806101000a81548173ffffffffffffffffffffffffffffffffffffffff021916908373ffffffffffffffffffffffffffffffffffffffff1602179055505056fe46656520706f6f6c20646f65736e2774206861766520656e6f75676820746f6b656e7320696e2061737365744f6e6c792074686520506f6f6c206f7220537472617465677920636f6e74726163742063616e2063616c6c20746869732066756e6374696f6ea2646970667358221220e16e4993eef7e44b3b46302ec1ef22ee065c385bed0259d5a7ddfd96ff2992e164736f6c634300060c0033",
  "immutableReferences": {
    "512": [
      {
        "length": 32,
        "start": 1203
      },
      {
        "length": 32,
        "start": 1403
      },
      {
        "length": 32,
        "start": 3177
      },
      {
        "length": 32,
        "start": 3496
      },
      {
        "length": 32,
        "start": 5087
      }
    ]
  },
  "source": "pragma solidity >=0.5.0;\r\n\r\n//Libraries\r\nimport './libraries/SafeMath.sol';\r\n\r\n// Inheritance\r\nimport \"./Ownable.sol\";\r\nimport './interfaces/IFeePool.sol';\r\n\r\n// Internal references\r\nimport \"./interfaces/IERC20.sol\";\r\nimport \"./interfaces/IAddressResolver.sol\";\r\nimport \"./interfaces/IBaseUbeswapAdapter.sol\";\r\n\r\ncontract FeePool is Ownable, IFeePool {\r\n    using SafeMath for uint;\r\n\r\n    IAddressResolver public immutable ADDRESS_RESOLVER;\r\n\r\n    mapping (address => uint) public balances;\r\n    address[] public positionKeys;\r\n    uint public totalSupply;\r\n\r\n    constructor(IAddressResolver _addressResolver) public Ownable() {\r\n        ADDRESS_RESOLVER = _addressResolver;\r\n    }\r\n\r\n    /* ========== VIEWS ========== */\r\n\r\n    /**\r\n    * @notice Returns the number of fee tokens the user has\r\n    * @param account Address of the user\r\n    * @return uint Number of fee tokens\r\n    */\r\n    function getTokenBalance(address account) external view override returns (uint) {\r\n        require(account != address(0), \"Invalid address\");\r\n\r\n        return balances[account];\r\n    }\r\n\r\n    /**\r\n    * @dev Returns the currency address and balance of each position the pool has, as well as the cumulative value\r\n    * @return (address[], uint[], uint) Currency address and balance of each position the pool has, and the cumulative value of positions\r\n    */\r\n    function getPositionsAndTotal() public view override returns (address[] memory, uint[] memory, uint) {\r\n        address baseUbeswapAdapterAddress = ADDRESS_RESOLVER.getContractAddress(\"BaseUbeswapAdapter\");\r\n        address[] memory addresses = new address[](positionKeys.length);\r\n        uint[] memory balances = new uint[](positionKeys.length);\r\n        uint sum = 0;\r\n\r\n        for (uint i = 0; i < positionKeys.length; i++)\r\n        {\r\n            balances[i] = IERC20(positionKeys[i]).balanceOf(address(this));\r\n            addresses[i] = positionKeys[i];\r\n\r\n            uint USDperToken = IBaseUbeswapAdapter(baseUbeswapAdapterAddress).getPrice(positionKeys[i]);\r\n            uint positionBalanceInUSD = USDperToken.mul(balances[i]);\r\n            sum.add(positionBalanceInUSD);\r\n        }\r\n\r\n        return (addresses, balances, sum);\r\n    }\r\n\r\n    /**\r\n    * @dev Returns the value of the pool in USD\r\n    * @return uint Value of the pool in USD\r\n    */\r\n    function getPoolBalance() public view override returns (uint) {\r\n        (,, uint positionBalance) = getPositionsAndTotal();\r\n        \r\n        return positionBalance;\r\n    }\r\n\r\n    /**\r\n    * @dev Returns the balance of the user in USD\r\n    * @return uint Balance of the user in USD\r\n    */\r\n    function getUSDBalance(address user) public view override returns (uint) {\r\n        require(user != address(0), \"Invalid address\");\r\n\r\n        uint poolBalance = getPoolBalance();\r\n\r\n        return poolBalance.mul(balances[user]).div(totalSupply);\r\n    }\r\n\r\n    /* ========== MUTATIVE FUNCTIONS ========== */\r\n\r\n    /**\r\n    * @notice Allow a user to claim available fees in the specified currency\r\n    * @param currencyKey Address of the currency to claim \r\n    * @param amountInUSD Amount of fees to claim in USD\r\n    */\r\n    function claimAvailableFees(address currencyKey, uint amountInUSD) external override {\r\n        require(currencyKey != address(0), \"Invalid currency key\");\r\n        require(amountInUSD > 0, \"Amount must be greater than 0\");\r\n\r\n        address baseUbeswapAdapterAddress = ADDRESS_RESOLVER.getContractAddress(\"BaseUbeswapAdapter\");\r\n        uint userUSDBalance = getUSDBalance(msg.sender);\r\n        uint poolAssetBalance = IERC20(currencyKey).balanceOf(address(this));\r\n        uint USDperAssetToken = IBaseUbeswapAdapter(baseUbeswapAdapterAddress).getPrice(currencyKey);\r\n        uint assetBalanceInUSD = poolAssetBalance.mul(USDperAssetToken);\r\n    \r\n        require(userUSDBalance >= amountInUSD, \"Not enough fees available\");\r\n        require(assetBalanceInUSD >= amountInUSD, \"Fee pool doesn't have enough tokens in asset\");\r\n\r\n        uint poolUSDBalance = getPoolBalance();\r\n        uint numberOfAssetTokens = amountInUSD.div(USDperAssetToken);\r\n        uint numberOfFeeTokens = totalSupply.mul(amountInUSD).div(poolUSDBalance);\r\n\r\n        balances[msg.sender] = balances[msg.sender].sub(numberOfFeeTokens);\r\n        totalSupply = totalSupply.sub(numberOfFeeTokens);\r\n\r\n        IERC20(currencyKey).approve(msg.sender, numberOfAssetTokens);\r\n        IERC20(currencyKey).transferFrom(address(this), msg.sender, numberOfAssetTokens);\r\n\r\n        emit ClaimedFees(msg.sender, currencyKey, amountInUSD, block.timestamp);\r\n    }\r\n\r\n    /**\r\n    * @notice Adds fees to user\r\n    * @notice Function gets called by Pool whenever users withdraw for a profit\r\n    * @notice 1 fee token is minted per cUSD\r\n    * @param user Address of the user\r\n    * @param numberOfFeeTokens Number of fee tokens to mint\r\n    */\r\n    function addFees(address user, uint numberOfFeeTokens) public override onlyPoolOrStrategy {\r\n        require(numberOfFeeTokens > 0, \"Amount must be greater than 0\");\r\n        require(user != address(0), \"Invalid address\");\r\n\r\n        balances[user] = balances[user].add(numberOfFeeTokens);\r\n        totalSupply = totalSupply.add(numberOfFeeTokens);\r\n\r\n        emit AddedFees(user, numberOfFeeTokens, block.timestamp);\r\n    }\r\n\r\n    /* ========== MODIFIERS ========== */\r\n\r\n    modifier onlyPoolOrStrategy() {\r\n        require(ADDRESS_RESOLVER.checkIfPoolAddressIsValid(msg.sender) || ADDRESS_RESOLVER.checkIfStrategyAddressIsValid(msg.sender), \"Only the Pool or Strategy contract can call this function\");\r\n        _;\r\n    }\r\n\r\n    /* ========== EVENTS ========== */\r\n\r\n    event ClaimedFees(address user, address currencyKey, uint amountInUSD, uint timestamp);\r\n    event AddedFees(address user, uint numberOfFeeTokens, uint timestamp);\r\n}",
  "sourcePath": "C:/Users/xavie/OneDrive/Desktop/TradeGen/Github/tradegen/contracts/FeePool.sol",
  "compiler": {
    "name": "solc",
    "version": "0.6.12+commit.27d51765.Emscripten.clang"
  },
  "schemaVersion": "3.4.1",
  "updatedAt": "2021-07-15T18:31:19.050Z",
  "devdoc": {
    "kind": "dev",
    "methods": {
      "addFees(address,uint256)": {
        "params": {
          "numberOfFeeTokens": "Number of fee tokens to mint",
          "user": "Address of the user"
        }
      },
      "claimAvailableFees(address,uint256)": {
        "params": {
          "amountInUSD": "Amount of fees to claim in USD",
          "currencyKey": "Address of the currency to claim "
        }
      },
      "getPoolBalance()": {
        "details": "Returns the value of the pool in USD",
        "returns": {
          "_0": "uint Value of the pool in USD"
        }
      },
      "getPositionsAndTotal()": {
        "details": "Returns the currency address and balance of each position the pool has, as well as the cumulative value",
        "returns": {
          "_0": "(address[], uint[], uint) Currency address and balance of each position the pool has, and the cumulative value of positions"
        }
      },
      "getTokenBalance(address)": {
        "params": {
          "account": "Address of the user"
        },
        "returns": {
          "_0": "uint Number of fee tokens"
        }
      },
      "getUSDBalance(address)": {
        "details": "Returns the balance of the user in USD",
        "returns": {
          "_0": "uint Balance of the user in USD"
        }
      },
      "isOwner()": {
        "returns": {
          "_0": "true if `msg.sender` is the owner of the contract."
        }
      },
      "owner()": {
        "returns": {
          "_0": "the address of the owner."
        }
      },
      "renounceOwnership()": {
        "details": "Allows the current owner to relinquish control of the contract."
      },
      "transferOwnership(address)": {
        "details": "Allows the current owner to transfer control of the contract to a newOwner.",
        "params": {
          "newOwner": "The address to transfer ownership to."
        }
      }
    },
    "version": 1
  },
  "userdoc": {
    "kind": "user",
    "methods": {
      "addFees(address,uint256)": {
        "notice": "Adds fees to userFunction gets called by Pool whenever users withdraw for a profit1 fee token is minted per cUSD"
      },
      "claimAvailableFees(address,uint256)": {
        "notice": "Allow a user to claim available fees in the specified currency"
      },
      "getTokenBalance(address)": {
        "notice": "Returns the number of fee tokens the user has"
      },
      "renounceOwnership()": {
        "notice": "Renouncing to ownership will leave the contract without an owner. It will not be possible to call the functions with the `onlyOwner` modifier anymore."
      }
    },
    "version": 1
  }
}