{
  "contractName": "IsAbove",
  "abi": [
    {
      "inputs": [
        {
          "internalType": "uint256",
          "name": "price",
          "type": "uint256"
        }
      ],
      "stateMutability": "nonpayable",
      "type": "constructor"
    },
    {
      "anonymous": false,
      "inputs": [
        {
          "indexed": false,
          "internalType": "bool",
          "name": "status",
          "type": "bool"
        }
      ],
      "name": "ConditionStatus",
      "type": "event"
    },
    {
      "anonymous": false,
      "inputs": [
        {
          "indexed": true,
          "internalType": "address",
          "name": "comparatorAddress",
          "type": "address"
        },
        {
          "indexed": false,
          "internalType": "uint256",
          "name": "newPrice",
          "type": "uint256"
        },
        {
          "indexed": false,
          "internalType": "uint256",
          "name": "timestamp",
          "type": "uint256"
        }
      ],
      "name": "UpdatedPrice",
      "type": "event"
    },
    {
      "inputs": [],
      "name": "_developer",
      "outputs": [
        {
          "internalType": "address",
          "name": "",
          "type": "address"
        }
      ],
      "stateMutability": "view",
      "type": "function"
    },
    {
      "inputs": [],
      "name": "_price",
      "outputs": [
        {
          "internalType": "uint256",
          "name": "",
          "type": "uint256"
        }
      ],
      "stateMutability": "view",
      "type": "function"
    },
    {
      "inputs": [],
      "name": "getPriceAndDeveloper",
      "outputs": [
        {
          "internalType": "uint256",
          "name": "",
          "type": "uint256"
        },
        {
          "internalType": "address",
          "name": "",
          "type": "address"
        }
      ],
      "stateMutability": "view",
      "type": "function"
    },
    {
      "inputs": [
        {
          "internalType": "uint256",
          "name": "newPrice",
          "type": "uint256"
        }
      ],
      "name": "editPrice",
      "outputs": [],
      "stateMutability": "nonpayable",
      "type": "function"
    },
    {
      "inputs": [
        {
          "internalType": "address",
          "name": "firstIndicatorAddress",
          "type": "address"
        },
        {
          "internalType": "address",
          "name": "secondIndicatorAddress",
          "type": "address"
        }
      ],
      "name": "addTradingBot",
      "outputs": [
        {
          "internalType": "uint256",
          "name": "",
          "type": "uint256"
        }
      ],
      "stateMutability": "nonpayable",
      "type": "function"
    },
    {
      "inputs": [
        {
          "internalType": "uint256",
          "name": "comparatorIndex",
          "type": "uint256"
        },
        {
          "internalType": "uint256",
          "name": "firstIndicatorIndex",
          "type": "uint256"
        },
        {
          "internalType": "uint256",
          "name": "secondIndicatorIndex",
          "type": "uint256"
        }
      ],
      "name": "checkConditions",
      "outputs": [
        {
          "internalType": "bool",
          "name": "",
          "type": "bool"
        }
      ],
      "stateMutability": "nonpayable",
      "type": "function"
    }
  ],
  "bytecode": "0x608060405234801561001057600080fd5b50604051610ec8380380610ec88339818101604052602081101561003357600080fd5b810190808051906020019092919050505060008110156100bb576040517f08c379a000000000000000000000000000000000000000000000000000000000815260040180806020018281038252601c8152602001807f5072696365206d7573742062652067726561746572207468616e20300000000081525060200191505060405180910390fd5b8060008190555033600160006101000a81548173ffffffffffffffffffffffffffffffffffffffff021916908373ffffffffffffffffffffffffffffffffffffffff16021790555050610db5806101136000396000f3fe608060405234801561001057600080fd5b50600436106100625760003560e01c8063174862f814610067578063235b6ea1146100df5780637a9d0758146100fd5780637d6760bf1461013157806387e5bc6c1461016c578063a22a8b29146101c4575b600080fd5b6100c96004803603604081101561007d57600080fd5b81019080803573ffffffffffffffffffffffffffffffffffffffff169060200190929190803573ffffffffffffffffffffffffffffffffffffffff1690602001909291905050506101f2565b6040518082815260200191505060405180910390f35b6100e76104c0565b6040518082815260200191505060405180910390f35b6101056104c6565b604051808273ffffffffffffffffffffffffffffffffffffffff16815260200191505060405180910390f35b6101396104ec565b604051808381526020018273ffffffffffffffffffffffffffffffffffffffff1681526020019250505060405180910390f35b6101ac6004803603606081101561018257600080fd5b8101908080359060200190929190803590602001909291908035906020019092919050505061051d565b60405180821515815260200191505060405180910390f35b6101f0600480360360208110156101da57600080fd5b8101908080359060200190929190505050610b97565b005b60008073ffffffffffffffffffffffffffffffffffffffff168373ffffffffffffffffffffffffffffffffffffffff161415610296576040517f08c379a000000000000000000000000000000000000000000000000000000000815260040180806020018281038252601f8152602001807f496e76616c696420666972737420696e64696361746f7220616464726573730081525060200191505060405180910390fd5b600073ffffffffffffffffffffffffffffffffffffffff168273ffffffffffffffffffffffffffffffffffffffff161415610339576040517f08c379a00000000000000000000000000000000000000000000000000000000081526004018080602001828103825260208152602001807f496e76616c6964207365636f6e6420696e64696361746f72206164647265737381525060200191505060405180910390fd5b600260003373ffffffffffffffffffffffffffffffffffffffff1673ffffffffffffffffffffffffffffffffffffffff16815260200190815260200160002060405180604001604052808573ffffffffffffffffffffffffffffffffffffffff1681526020018473ffffffffffffffffffffffffffffffffffffffff16815250908060018154018082558091505060019003906000526020600020906002020160009091909190915060008201518160000160006101000a81548173ffffffffffffffffffffffffffffffffffffffff021916908373ffffffffffffffffffffffffffffffffffffffff16021790555060208201518160010160006101000a81548173ffffffffffffffffffffffffffffffffffffffff021916908373ffffffffffffffffffffffffffffffffffffffff16021790555050506001600260003373ffffffffffffffffffffffffffffffffffffffff1673ffffffffffffffffffffffffffffffffffffffff1681526020019081526020016000208054905003905092915050565b60005481565b600160009054906101000a900473ffffffffffffffffffffffffffffffffffffffff1681565b600080600054600160009054906101000a900473ffffffffffffffffffffffffffffffffffffffff16915091509091565b60008084101580156105705750600260003373ffffffffffffffffffffffffffffffffffffffff1673ffffffffffffffffffffffffffffffffffffffff1681526020019081526020016000208054905084105b6105e2576040517f08c379a00000000000000000000000000000000000000000000000000000000081526004018080602001828103825260188152602001807f496e76616c696420636f6d70617261746f7220696e646578000000000000000081525060200191505060405180910390fd5b6000831015610659576040517f08c379a000000000000000000000000000000000000000000000000000000000815260040180806020018281038252601d8152602001807f496e76616c696420666972737420696e64696361746f7220696e64657800000081525060200191505060405180910390fd5b60008210156106d0576040517f08c379a000000000000000000000000000000000000000000000000000000000815260040180806020018281038252601e8152602001807f496e76616c6964207365636f6e6420696e64696361746f7220696e646578000081525060200191505060405180910390fd5b6106d8610d14565b600260003373ffffffffffffffffffffffffffffffffffffffff1673ffffffffffffffffffffffffffffffffffffffff168152602001908152602001600020858154811061072257fe5b90600052602060002090600202016040518060400160405290816000820160009054906101000a900473ffffffffffffffffffffffffffffffffffffffff1673ffffffffffffffffffffffffffffffffffffffff1673ffffffffffffffffffffffffffffffffffffffff1681526020016001820160009054906101000a900473ffffffffffffffffffffffffffffffffffffffff1673ffffffffffffffffffffffffffffffffffffffff1673ffffffffffffffffffffffffffffffffffffffff168152505090506060816000015173ffffffffffffffffffffffffffffffffffffffff1663c7bf8cf533876040518363ffffffff1660e01b8152600401808373ffffffffffffffffffffffffffffffffffffffff1681526020018281526020019250505060006040518083038186803b15801561085e57600080fd5b505afa158015610872573d6000803e3d6000fd5b505050506040513d6000823e3d601f19601f82011682018060405250602081101561089c57600080fd5b81019080805160405193929190846401000000008211156108bc57600080fd5b838201915060208201858111156108d257600080fd5b82518660208202830111640100000000821117156108ef57600080fd5b8083526020830192505050908051906020019060200280838360005b8381101561092657808201518184015260208101905061090b565b5050505090500160405250505090506060826020015173ffffffffffffffffffffffffffffffffffffffff1663c7bf8cf533876040518363ffffffff1660e01b8152600401808373ffffffffffffffffffffffffffffffffffffffff1681526020018281526020019250505060006040518083038186803b1580156109aa57600080fd5b505afa1580156109be573d6000803e3d6000fd5b505050506040513d6000823e3d601f19601f8201168201806040525060208110156109e857600080fd5b8101908080516040519392919084640100000000821115610a0857600080fd5b83820191506020820185811115610a1e57600080fd5b8251866020820283011164010000000082111715610a3b57600080fd5b8083526020830192505050908051906020019060200280838360005b83811015610a72578082015181840152602081019050610a57565b505050509050016040525050509050600082511480610a92575060008151145b80610ab15750600081600081518110610aa757fe5b6020026020010151145b15610afc577f4a98b6a8c876cdc7409113983b7396d70c5ab449592bceedbfe7ec1e96b5fa2f600060405180821515815260200191505060405180910390a160009350505050610b90565b7f4a98b6a8c876cdc7409113983b7396d70c5ab449592bceedbfe7ec1e96b5fa2f81600081518110610b2a57fe5b602002602001015183600081518110610b3f57fe5b60200260200101511160405180821515815260200191505060405180910390a180600081518110610b6c57fe5b602002602001015182600081518110610b8157fe5b60200260200101511193505050505b9392505050565b600160009054906101000a900473ffffffffffffffffffffffffffffffffffffffff1673ffffffffffffffffffffffffffffffffffffffff163373ffffffffffffffffffffffffffffffffffffffff1614610c3d576040517f08c379a0000000000000000000000000000000000000000000000000000000008152600401808060200182810382526025815260200180610d5b6025913960400191505060405180910390fd5b6000811015610cb4576040517f08c379a000000000000000000000000000000000000000000000000000000000815260040180806020018281038252601f8152602001807f5072696365206d757374206265206120706f736974697665206e756d6265720081525060200191505060405180910390fd5b806000819055503073ffffffffffffffffffffffffffffffffffffffff167ff55d9f2dbb0ce58a822e950a56c6b24b103fae2b7633f87087fc24beba1754548242604051808381526020018281526020019250505060405180910390a250565b6040518060400160405280600073ffffffffffffffffffffffffffffffffffffffff168152602001600073ffffffffffffffffffffffffffffffffffffffff168152509056fe4f6e6c792074686520646576656c6f7065722063616e206564697420746865207072696365a2646970667358221220468753ee1057a28270d087ae144f0c645fc63923cb8deea0037c65660d55773464736f6c634300060c0033",
  "immutableReferences": {},
  "source": "pragma solidity >=0.5.0;\r\n\r\nimport './interfaces/IIndicator.sol';\r\nimport './interfaces/IComparator.sol';\r\n\r\ncontract IsAbove is IComparator {\r\n\r\n    struct State {\r\n        address firstIndicatorAddress;\r\n        address secondIndicatorAddress;\r\n    }\r\n\r\n    uint public _price;\r\n    address public _developer;\r\n\r\n    mapping (address => State[]) private _tradingBotStates;\r\n\r\n    constructor(uint price) public {\r\n        require(price >= 0, \"Price must be greater than 0\");\r\n\r\n        _price = price;\r\n        _developer = msg.sender;\r\n    }\r\n\r\n    /**\r\n    * @dev Returns the sale price and the developer of the comparator\r\n    * @return (uint, address) Sale price of the comparator and the comparator's developer\r\n    */\r\n    function getPriceAndDeveloper() public view override returns (uint, address) {\r\n        return (_price, _developer);\r\n    }\r\n\r\n    /**\r\n    * @dev Updates the sale price of the comparator; meant to be called by the comparator developer\r\n    * @param newPrice The new sale price of the comparator\r\n    */\r\n    function editPrice(uint newPrice) external override {\r\n        require(msg.sender == _developer, \"Only the developer can edit the price\");\r\n        require(newPrice >= 0, \"Price must be a positive number\");\r\n\r\n        _price = newPrice;\r\n\r\n        emit UpdatedPrice(address(this), newPrice, block.timestamp);\r\n    }\r\n\r\n    /**\r\n    * @dev Initializes the state of the trading bot; meant to be called by a trading bot\r\n    * @param firstIndicatorAddress Address of the comparator's first indicator\r\n    * @param secondIndicatorAddress Address of the comparator's second indicator\r\n    * @return uint Index of comparator in trading bot instance array\r\n    */\r\n    function addTradingBot(address firstIndicatorAddress, address secondIndicatorAddress) public override returns (uint) {\r\n        require(firstIndicatorAddress != address(0), \"Invalid first indicator address\");\r\n        require(secondIndicatorAddress != address(0), \"Invalid second indicator address\");\r\n\r\n        _tradingBotStates[msg.sender].push(State(firstIndicatorAddress, secondIndicatorAddress));\r\n\r\n        return _tradingBotStates[msg.sender].length - 1;\r\n    }\r\n\r\n    /**\r\n    * @dev Returns whether the comparator's conditions are met\r\n    * @param comparatorIndex Index of comparator in trading bot's entry/exit rule array\r\n    * @param firstIndicatorIndex Index of first indicator in trading bot's entry/exit rule array\r\n    * @param secondIndicatorIndex Index of second indicator in trading bot's entry/exit rule array\r\n    * @return bool Whether the comparator's conditions are met after the latest price feed update\r\n    */\r\n    function checkConditions(uint comparatorIndex, uint firstIndicatorIndex, uint secondIndicatorIndex) public override returns (bool) {\r\n        require(comparatorIndex >= 0 && comparatorIndex < _tradingBotStates[msg.sender].length, \"Invalid comparator index\");\r\n        require(firstIndicatorIndex >= 0, \"Invalid first indicator index\");\r\n        require(secondIndicatorIndex >= 0, \"Invalid second indicator index\");\r\n\r\n        State memory tradingBotState = _tradingBotStates[msg.sender][comparatorIndex];\r\n\r\n        uint[] memory firstIndicatorHistory = IIndicator(tradingBotState.firstIndicatorAddress).getValue(msg.sender, firstIndicatorIndex);\r\n        uint[] memory secondIndicatorHistory = IIndicator(tradingBotState.secondIndicatorAddress).getValue(msg.sender, secondIndicatorIndex);\r\n\r\n        if (firstIndicatorHistory.length == 0 || secondIndicatorHistory.length == 0 || secondIndicatorHistory[0] == 0)\r\n        {\r\n            emit ConditionStatus(false); //test\r\n\r\n            return false;\r\n        }\r\n\r\n        emit ConditionStatus(firstIndicatorHistory[0] > secondIndicatorHistory[0]); //test\r\n\r\n        return (firstIndicatorHistory[0] > secondIndicatorHistory[0]);\r\n    }\r\n\r\n    event ConditionStatus(bool status); //test\r\n}",
  "sourcePath": "C:/Users/xavie/OneDrive/Desktop/TradeGen/Github/tradegen/contracts/IsAbove.sol",
  "compiler": {
    "name": "solc",
    "version": "0.6.12+commit.27d51765.Emscripten.clang"
  },
  "schemaVersion": "3.4.1",
  "updatedAt": "2021-07-05T17:18:39.617Z",
  "devdoc": {
    "kind": "dev",
    "methods": {
      "addTradingBot(address,address)": {
        "details": "Initializes the state of the trading bot; meant to be called by a trading bot",
        "params": {
          "firstIndicatorAddress": "Address of the comparator's first indicator",
          "secondIndicatorAddress": "Address of the comparator's second indicator"
        },
        "returns": {
          "_0": "uint Index of comparator in trading bot instance array"
        }
      },
      "checkConditions(uint256,uint256,uint256)": {
        "details": "Returns whether the comparator's conditions are met",
        "params": {
          "comparatorIndex": "Index of comparator in trading bot's entry/exit rule array",
          "firstIndicatorIndex": "Index of first indicator in trading bot's entry/exit rule array",
          "secondIndicatorIndex": "Index of second indicator in trading bot's entry/exit rule array"
        },
        "returns": {
          "_0": "bool Whether the comparator's conditions are met after the latest price feed update"
        }
      },
      "editPrice(uint256)": {
        "details": "Updates the sale price of the comparator; meant to be called by the comparator developer",
        "params": {
          "newPrice": "The new sale price of the comparator"
        }
      },
      "getPriceAndDeveloper()": {
        "details": "Returns the sale price and the developer of the comparator",
        "returns": {
          "_0": "(uint, address) Sale price of the comparator and the comparator's developer"
        }
      }
    },
    "version": 1
  },
  "userdoc": {
    "kind": "user",
    "methods": {},
    "version": 1
  }
}