{
  "contractName": "Settings",
  "abi": [
    {
      "inputs": [],
      "stateMutability": "nonpayable",
      "type": "constructor"
    },
    {
      "anonymous": false,
      "inputs": [
        {
          "indexed": false,
          "internalType": "address",
          "name": "currencyKey",
          "type": "address"
        },
        {
          "indexed": false,
          "internalType": "uint256",
          "name": "timestamp",
          "type": "uint256"
        }
      ],
      "name": "AddedCurrencyKey",
      "type": "event"
    },
    {
      "anonymous": false,
      "inputs": [
        {
          "indexed": false,
          "internalType": "address",
          "name": "oracleAddress",
          "type": "address"
        },
        {
          "indexed": false,
          "internalType": "uint256",
          "name": "timestamp",
          "type": "uint256"
        }
      ],
      "name": "AddedOracleAPIAddress",
      "type": "event"
    },
    {
      "anonymous": false,
      "inputs": [
        {
          "indexed": true,
          "internalType": "address",
          "name": "previousOwner",
          "type": "address"
        },
        {
          "indexed": true,
          "internalType": "address",
          "name": "newOwner",
          "type": "address"
        }
      ],
      "name": "OwnershipTransferred",
      "type": "event"
    },
    {
      "anonymous": false,
      "inputs": [
        {
          "indexed": false,
          "internalType": "string",
          "name": "parameter",
          "type": "string"
        },
        {
          "indexed": false,
          "internalType": "uint256",
          "name": "oldValue",
          "type": "uint256"
        },
        {
          "indexed": false,
          "internalType": "uint256",
          "name": "newValue",
          "type": "uint256"
        },
        {
          "indexed": false,
          "internalType": "uint256",
          "name": "timestamp",
          "type": "uint256"
        }
      ],
      "name": "SetParameterValue",
      "type": "event"
    },
    {
      "anonymous": false,
      "inputs": [
        {
          "indexed": false,
          "internalType": "string",
          "name": "currencySymbol",
          "type": "string"
        },
        {
          "indexed": false,
          "internalType": "address",
          "name": "oldCurrencyKey",
          "type": "address"
        },
        {
          "indexed": false,
          "internalType": "address",
          "name": "newCurrencyKey",
          "type": "address"
        },
        {
          "indexed": false,
          "internalType": "uint256",
          "name": "timestamp",
          "type": "uint256"
        }
      ],
      "name": "UpdatedCurrencyKey",
      "type": "event"
    },
    {
      "anonymous": false,
      "inputs": [
        {
          "indexed": false,
          "internalType": "string",
          "name": "oracleName",
          "type": "string"
        },
        {
          "indexed": false,
          "internalType": "address",
          "name": "oldOracleAddress",
          "type": "address"
        },
        {
          "indexed": false,
          "internalType": "address",
          "name": "newOracleAddress",
          "type": "address"
        },
        {
          "indexed": false,
          "internalType": "uint256",
          "name": "timestamp",
          "type": "uint256"
        }
      ],
      "name": "UpdatedOracleAPIAddress",
      "type": "event"
    },
    {
      "anonymous": false,
      "inputs": [
        {
          "indexed": false,
          "internalType": "address",
          "name": "oldAddress",
          "type": "address"
        },
        {
          "indexed": false,
          "internalType": "address",
          "name": "stableCurrencyAddress",
          "type": "address"
        },
        {
          "indexed": false,
          "internalType": "uint256",
          "name": "timestamp",
          "type": "uint256"
        }
      ],
      "name": "UpdatedStableCoinAddress",
      "type": "event"
    },
    {
      "inputs": [
        {
          "internalType": "uint256",
          "name": "",
          "type": "uint256"
        }
      ],
      "name": "availableCurrencies",
      "outputs": [
        {
          "internalType": "address",
          "name": "",
          "type": "address"
        }
      ],
      "stateMutability": "view",
      "type": "function"
    },
    {
      "inputs": [],
      "name": "cUSDAddress",
      "outputs": [
        {
          "internalType": "address",
          "name": "",
          "type": "address"
        }
      ],
      "stateMutability": "view",
      "type": "function"
    },
    {
      "inputs": [
        {
          "internalType": "address",
          "name": "",
          "type": "address"
        }
      ],
      "name": "currencyKeyToIndex",
      "outputs": [
        {
          "internalType": "uint256",
          "name": "",
          "type": "uint256"
        }
      ],
      "stateMutability": "view",
      "type": "function"
    },
    {
      "inputs": [
        {
          "internalType": "address",
          "name": "",
          "type": "address"
        }
      ],
      "name": "currencyKeyToSymbol",
      "outputs": [
        {
          "internalType": "string",
          "name": "",
          "type": "string"
        }
      ],
      "stateMutability": "view",
      "type": "function"
    },
    {
      "inputs": [
        {
          "internalType": "string",
          "name": "",
          "type": "string"
        }
      ],
      "name": "currencySymbolToAddress",
      "outputs": [
        {
          "internalType": "address",
          "name": "",
          "type": "address"
        }
      ],
      "stateMutability": "view",
      "type": "function"
    },
    {
      "inputs": [],
      "name": "isOwner",
      "outputs": [
        {
          "internalType": "bool",
          "name": "",
          "type": "bool"
        }
      ],
      "stateMutability": "view",
      "type": "function"
    },
    {
      "inputs": [
        {
          "internalType": "address",
          "name": "",
          "type": "address"
        }
      ],
      "name": "isValidOracleAPIAddress",
      "outputs": [
        {
          "internalType": "uint256",
          "name": "",
          "type": "uint256"
        }
      ],
      "stateMutability": "view",
      "type": "function"
    },
    {
      "inputs": [
        {
          "internalType": "uint256",
          "name": "",
          "type": "uint256"
        }
      ],
      "name": "oracleAPIAddresses",
      "outputs": [
        {
          "internalType": "address",
          "name": "",
          "type": "address"
        }
      ],
      "stateMutability": "view",
      "type": "function"
    },
    {
      "inputs": [
        {
          "internalType": "address",
          "name": "",
          "type": "address"
        }
      ],
      "name": "oracleAddressToName",
      "outputs": [
        {
          "internalType": "string",
          "name": "",
          "type": "string"
        }
      ],
      "stateMutability": "view",
      "type": "function"
    },
    {
      "inputs": [],
      "name": "owner",
      "outputs": [
        {
          "internalType": "address",
          "name": "",
          "type": "address"
        }
      ],
      "stateMutability": "view",
      "type": "function"
    },
    {
      "inputs": [
        {
          "internalType": "string",
          "name": "",
          "type": "string"
        }
      ],
      "name": "parameters",
      "outputs": [
        {
          "internalType": "uint256",
          "name": "",
          "type": "uint256"
        }
      ],
      "stateMutability": "view",
      "type": "function"
    },
    {
      "inputs": [],
      "name": "renounceOwnership",
      "outputs": [],
      "stateMutability": "nonpayable",
      "type": "function"
    },
    {
      "inputs": [
        {
          "internalType": "address",
          "name": "newOwner",
          "type": "address"
        }
      ],
      "name": "transferOwnership",
      "outputs": [],
      "stateMutability": "nonpayable",
      "type": "function"
    },
    {
      "inputs": [
        {
          "internalType": "uint256",
          "name": "index",
          "type": "uint256"
        }
      ],
      "name": "getCurrencyKeyFromIndex",
      "outputs": [
        {
          "internalType": "address",
          "name": "",
          "type": "address"
        }
      ],
      "stateMutability": "view",
      "type": "function"
    },
    {
      "inputs": [
        {
          "internalType": "string",
          "name": "parameter",
          "type": "string"
        }
      ],
      "name": "getParameterValue",
      "outputs": [
        {
          "internalType": "uint256",
          "name": "",
          "type": "uint256"
        }
      ],
      "stateMutability": "view",
      "type": "function"
    },
    {
      "inputs": [],
      "name": "getAvailableCurrencies",
      "outputs": [
        {
          "internalType": "address[]",
          "name": "",
          "type": "address[]"
        }
      ],
      "stateMutability": "view",
      "type": "function"
    },
    {
      "inputs": [
        {
          "internalType": "address",
          "name": "currencyKey",
          "type": "address"
        }
      ],
      "name": "getCurrencySymbol",
      "outputs": [
        {
          "internalType": "string",
          "name": "",
          "type": "string"
        }
      ],
      "stateMutability": "view",
      "type": "function"
    },
    {
      "inputs": [],
      "name": "getStableCoinAddress",
      "outputs": [
        {
          "internalType": "address",
          "name": "",
          "type": "address"
        }
      ],
      "stateMutability": "view",
      "type": "function"
    },
    {
      "inputs": [],
      "name": "getOracleAPIs",
      "outputs": [
        {
          "internalType": "address[]",
          "name": "",
          "type": "address[]"
        }
      ],
      "stateMutability": "view",
      "type": "function"
    },
    {
      "inputs": [
        {
          "internalType": "address",
          "name": "oracleAddress",
          "type": "address"
        }
      ],
      "name": "getOracleAPIName",
      "outputs": [
        {
          "internalType": "string",
          "name": "",
          "type": "string"
        }
      ],
      "stateMutability": "view",
      "type": "function"
    },
    {
      "inputs": [
        {
          "internalType": "address",
          "name": "currencyKey",
          "type": "address"
        }
      ],
      "name": "checkIfCurrencyIsAvailable",
      "outputs": [
        {
          "internalType": "bool",
          "name": "",
          "type": "bool"
        }
      ],
      "stateMutability": "view",
      "type": "function"
    },
    {
      "inputs": [
        {
          "internalType": "string",
          "name": "parameter",
          "type": "string"
        },
        {
          "internalType": "uint256",
          "name": "newValue",
          "type": "uint256"
        }
      ],
      "name": "setParameterValue",
      "outputs": [],
      "stateMutability": "nonpayable",
      "type": "function"
    },
    {
      "inputs": [
        {
          "internalType": "address",
          "name": "stableCoinAddress",
          "type": "address"
        }
      ],
      "name": "setStableCoinAddress",
      "outputs": [],
      "stateMutability": "nonpayable",
      "type": "function"
    },
    {
      "inputs": [
        {
          "internalType": "string",
          "name": "currencySymbol",
          "type": "string"
        },
        {
          "internalType": "address",
          "name": "newCurrencyKey",
          "type": "address"
        }
      ],
      "name": "updateCurrencyKey",
      "outputs": [],
      "stateMutability": "nonpayable",
      "type": "function"
    },
    {
      "inputs": [
        {
          "internalType": "string",
          "name": "currencySymbol",
          "type": "string"
        },
        {
          "internalType": "address",
          "name": "currencyKey",
          "type": "address"
        }
      ],
      "name": "addCurrencyKey",
      "outputs": [],
      "stateMutability": "nonpayable",
      "type": "function"
    },
    {
      "inputs": [
        {
          "internalType": "address",
          "name": "oldOracleAddress",
          "type": "address"
        },
        {
          "internalType": "address",
          "name": "newOracleAddress",
          "type": "address"
        }
      ],
      "name": "updateOracleAPIAddress",
      "outputs": [],
      "stateMutability": "nonpayable",
      "type": "function"
    },
    {
      "inputs": [
        {
          "internalType": "string",
          "name": "name",
          "type": "string"
        },
        {
          "internalType": "address",
          "name": "oracleAddress",
          "type": "address"
        }
      ],
      "name": "addOracleAPIAddress",
      "outputs": [],
      "stateMutability": "nonpayable",
      "type": "function"
    }
  ],
  "bytecode": "0x608060405234801561001057600080fd5b50336000806101000a81548173ffffffffffffffffffffffffffffffffffffffff021916908373ffffffffffffffffffffffffffffffffffffffff16021790555060008054906101000a900473ffffffffffffffffffffffffffffffffffffffff1673ffffffffffffffffffffffffffffffffffffffff16600073ffffffffffffffffffffffffffffffffffffffff167f8be0079c531659141344cd1fd0a4f28419497f9722a3daafe3b4186f6b6457e060405160405180910390a3613662806100db6000396000f3fe608060405234801561001057600080fd5b50600436106101a85760003560e01c8063566b4a35116100f95780638f32d59b11610097578063f2fde38b11610071578063f2fde38b14610d3c578063f3574a4c14610d80578063f559814b14610dd8578063f74987cb14610e37576101a8565b80638f32d59b14610c2b578063a673e94414610c4b578063be781b1c14610d08576101a8565b80637ba15ce9116100d35780637ba15ce914610ae35780638055362314610b475780638da5cb5b14610b9f5780638ee3d0d214610bd3576101a8565b8063566b4a3514610a27578063571a088514610a7f578063715018a614610ad9576101a8565b80633ff574b61161016657806350dfe2f01161014057806350dfe2f01461071557806352bf83e3146107f0578063554c9b6a146108ad578063565bd77e1461096a576101a8565b80633ff574b61461063e57806344879b3b146106725780634dfe56d9146106b6576101a8565b8062f6ec7a146101ad578063017dcc70146102925780631705cae8146103615780631f6950071461043c57806328a2176f146105175780632b0e0ab3146105e6575b600080fd5b610266600480360360208110156101c357600080fd5b81019080803590602001906401000000008111156101e057600080fd5b8201836020820111156101f257600080fd5b8035906020019184600183028401116401000000008311171561021457600080fd5b91908080601f016020809104026020016040519081016040528093929190818152602001838380828437600081840152601f19601f820116905080830192505050505050509192919290505050610efc565b604051808273ffffffffffffffffffffffffffffffffffffffff16815260200191505060405180910390f35b61034b600480360360208110156102a857600080fd5b81019080803590602001906401000000008111156102c557600080fd5b8201836020820111156102d757600080fd5b803590602001918460018302840111640100000000831117156102f957600080fd5b91908080601f016020809104026020016040519081016040528093929190818152602001838380828437600081840152601f19601f820116905080830192505050505050509192919290505050610f45565b6040518082815260200191505060405180910390f35b61043a6004803603604081101561037757600080fd5b810190808035906020019064010000000081111561039457600080fd5b8201836020820111156103a657600080fd5b803590602001918460018302840111640100000000831117156103c857600080fd5b91908080601f016020809104026020016040519081016040528093929190818152602001838380828437600081840152601f19601f820116905080830192505050505050509192919290803573ffffffffffffffffffffffffffffffffffffffff169060200190929190505050610f73565b005b6105156004803603604081101561045257600080fd5b810190808035906020019064010000000081111561046f57600080fd5b82018360208201111561048157600080fd5b803590602001918460018302840111640100000000831117156104a357600080fd5b91908080601f016020809104026020016040519081016040528093929190818152602001838380828437600081840152601f19601f820116905080830192505050505050509192919290803573ffffffffffffffffffffffffffffffffffffffff169060200190929190505050611237565b005b6105d06004803603602081101561052d57600080fd5b810190808035906020019064010000000081111561054a57600080fd5b82018360208201111561055c57600080fd5b8035906020019184600183028401116401000000008311171561057e57600080fd5b91908080601f016020809104026020016040519081016040528093929190818152602001838380828437600081840152601f19601f820116905080830192505050505050509192919290505050611775565b6040518082815260200191505060405180910390f35b610612600480360360208110156105fc57600080fd5b81019080803590602001909291905050506117e8565b604051808273ffffffffffffffffffffffffffffffffffffffff16815260200191505060405180910390f35b61064661184c565b604051808273ffffffffffffffffffffffffffffffffffffffff16815260200191505060405180910390f35b6106b46004803603602081101561068857600080fd5b81019080803573ffffffffffffffffffffffffffffffffffffffff169060200190929190505050611872565b005b6106be611a07565b6040518080602001828103825283818151815260200191508051906020019060200280838360005b838110156107015780820151818401526020810190506106e6565b505050509050019250505060405180910390f35b6107ee6004803603604081101561072b57600080fd5b810190808035906020019064010000000081111561074857600080fd5b82018360208201111561075a57600080fd5b8035906020019184600183028401116401000000008311171561077c57600080fd5b91908080601f016020809104026020016040519081016040528093929190818152602001838380828437600081840152601f19601f820116905080830192505050505050509192919290803573ffffffffffffffffffffffffffffffffffffffff169060200190929190505050611a95565b005b6108326004803603602081101561080657600080fd5b81019080803573ffffffffffffffffffffffffffffffffffffffff1690602001909291905050506121b1565b6040518080602001828103825283818151815260200191508051906020019080838360005b83811015610872578082015181840152602081019050610857565b50505050905090810190601f16801561089f5780820380516001836020036101000a031916815260200191505b509250505060405180910390f35b6108ef600480360360208110156108c357600080fd5b81019080803573ffffffffffffffffffffffffffffffffffffffff169060200190929190505050612261565b6040518080602001828103825283818151815260200191508051906020019080838360005b8381101561092f578082015181840152602081019050610914565b50505050905090810190601f16801561095c5780820380516001836020036101000a031916815260200191505b509250505060405180910390f35b6109ac6004803603602081101561098057600080fd5b81019080803573ffffffffffffffffffffffffffffffffffffffff16906020019092919050505061249c565b6040518080602001828103825283818151815260200191508051906020019080838360005b838110156109ec5780820151818401526020810190506109d1565b50505050905090810190601f168015610a195780820380516001836020036101000a031916815260200191505b509250505060405180910390f35b610a6960048036036020811015610a3d57600080fd5b81019080803573ffffffffffffffffffffffffffffffffffffffff16906020019092919050505061254c565b6040518082815260200191505060405180910390f35b610ac160048036036020811015610a9557600080fd5b81019080803573ffffffffffffffffffffffffffffffffffffffff169060200190929190505050612564565b60405180821515815260200191505060405180910390f35b610ae1612655565b005b610b4560048036036040811015610af957600080fd5b81019080803573ffffffffffffffffffffffffffffffffffffffff169060200190929190803573ffffffffffffffffffffffffffffffffffffffff169060200190929190505050612724565b005b610b7360048036036020811015610b5d57600080fd5b8101908080359060200190929190505050612d19565b604051808273ffffffffffffffffffffffffffffffffffffffff16815260200191505060405180910390f35b610ba7612d55565b604051808273ffffffffffffffffffffffffffffffffffffffff16815260200191505060405180910390f35b610c1560048036036020811015610be957600080fd5b81019080803573ffffffffffffffffffffffffffffffffffffffff169060200190929190505050612d7e565b6040518082815260200191505060405180910390f35b610c33612d96565b60405180821515815260200191505060405180910390f35b610c8d60048036036020811015610c6157600080fd5b81019080803573ffffffffffffffffffffffffffffffffffffffff169060200190929190505050612ded565b6040518080602001828103825283818151815260200191508051906020019080838360005b83811015610ccd578082015181840152602081019050610cb2565b50505050905090810190601f168015610cfa5780820380516001836020036101000a031916815260200191505b509250505060405180910390f35b610d10613028565b604051808273ffffffffffffffffffffffffffffffffffffffff16815260200191505060405180910390f35b610d7e60048036036020811015610d5257600080fd5b81019080803573ffffffffffffffffffffffffffffffffffffffff169060200190929190505050613052565b005b610dac60048036036020811015610d9657600080fd5b810190808035906020019092919050505061306f565b604051808273ffffffffffffffffffffffffffffffffffffffff16815260200191505060405180910390f35b610de06130ab565b6040518080602001828103825283818151815260200191508051906020019060200280838360005b83811015610e23578082015181840152602081019050610e08565b505050509050019250505060405180910390f35b610efa60048036036040811015610e4d57600080fd5b8101908080359060200190640100000000811115610e6a57600080fd5b820183602082011115610e7c57600080fd5b80359060200191846001830284011164010000000083111715610e9e57600080fd5b91908080601f016020809104026020016040519081016040528093929190818152602001838380828437600081840152601f19601f82011690508083019250505050505050919291929080359060200190929190505050613139565b005b6005818051602081018201805184825260208301602085012081835280955050505050506000915054906101000a900473ffffffffffffffffffffffffffffffffffffffff1681565b6001818051602081018201805184825260208301602085012081835280955050505050506000915090505481565b610f7b612d96565b610f8457600080fd5b80600073ffffffffffffffffffffffffffffffffffffffff168173ffffffffffffffffffffffffffffffffffffffff161415611028576040517f08c379a00000000000000000000000000000000000000000000000000000000081526004018080602001828103825260148152602001807f41646472657373206973206e6f742076616c696400000000000000000000000081525060200191505060405180910390fd5b6000600860008473ffffffffffffffffffffffffffffffffffffffff1673ffffffffffffffffffffffffffffffffffffffff16815260200190815260200160002054146110dd576040517f08c379a000000000000000000000000000000000000000000000000000000000815260040180806020018281038252601d8152602001807f4f7261636c65206164647265737320616c72656164792065786973747300000081525060200191505060405180910390fd5b6007829080600181540180825580915050600190039060005260206000200160009091909190916101000a81548173ffffffffffffffffffffffffffffffffffffffff021916908373ffffffffffffffffffffffffffffffffffffffff160217905550600780549050600860008473ffffffffffffffffffffffffffffffffffffffff1673ffffffffffffffffffffffffffffffffffffffff1681526020019081526020016000208190555082600960008473ffffffffffffffffffffffffffffffffffffffff1673ffffffffffffffffffffffffffffffffffffffff16815260200190815260200160002090805190602001906111dc92919061344c565b507fa564f29e4413419045dd3eb6503eba734201693a6eaf99dc09eee622176661048242604051808373ffffffffffffffffffffffffffffffffffffffff1681526020018281526020019250505060405180910390a1505050565b61123f612d96565b61124857600080fd5b80600073ffffffffffffffffffffffffffffffffffffffff168173ffffffffffffffffffffffffffffffffffffffff1614156112ec576040517f08c379a00000000000000000000000000000000000000000000000000000000081526004018080602001828103825260148152602001807f41646472657373206973206e6f742076616c696400000000000000000000000081525060200191505060405180910390fd5b600260009054906101000a900473ffffffffffffffffffffffffffffffffffffffff1673ffffffffffffffffffffffffffffffffffffffff168273ffffffffffffffffffffffffffffffffffffffff161415611393576040517f08c379a000000000000000000000000000000000000000000000000000000000815260040180806020018281038252602181526020018061360c6021913960400191505060405180910390fd5b6000600460008473ffffffffffffffffffffffffffffffffffffffff1673ffffffffffffffffffffffffffffffffffffffff1681526020019081526020016000205414611448576040517f08c379a000000000000000000000000000000000000000000000000000000000815260040180806020018281038252601b8152602001807f43757272656e6379206b657920616c726561647920657869737473000000000081525060200191505060405180910390fd5b600073ffffffffffffffffffffffffffffffffffffffff166005846040518082805190602001908083835b602083106114965780518252602082019150602081019050602083039250611473565b6001836020036101000a038019825116818451168082178552505050505050905001915050908152602001604051809103902060009054906101000a900473ffffffffffffffffffffffffffffffffffffffff1673ffffffffffffffffffffffffffffffffffffffff1614611573576040517f08c379a000000000000000000000000000000000000000000000000000000000815260040180806020018281038252601e8152602001807f43757272656e63792073796d626f6c20616c726561647920657869737473000081525060200191505060405180910390fd5b6003829080600181540180825580915050600190039060005260206000200160009091909190916101000a81548173ffffffffffffffffffffffffffffffffffffffff021916908373ffffffffffffffffffffffffffffffffffffffff160217905550600380549050600460008473ffffffffffffffffffffffffffffffffffffffff1673ffffffffffffffffffffffffffffffffffffffff16815260200190815260200160002081905550816005846040518082805190602001908083835b602083106116565780518252602082019150602081019050602083039250611633565b6001836020036101000a038019825116818451168082178552505050505050905001915050908152602001604051809103902060006101000a81548173ffffffffffffffffffffffffffffffffffffffff021916908373ffffffffffffffffffffffffffffffffffffffff16021790555082600660008473ffffffffffffffffffffffffffffffffffffffff1673ffffffffffffffffffffffffffffffffffffffff168152602001908152602001600020908051906020019061171a92919061344c565b507fcbab75122074af5e3e5fd93250b21fa5f48329d5637242b283f2ca5cdf35baeb8242604051808373ffffffffffffffffffffffffffffffffffffffff1681526020018281526020019250505060405180910390a1505050565b60006001826040518082805190602001908083835b602083106117ad578051825260208201915060208101905060208303925061178a565b6001836020036101000a0380198251168184511680821785525050505050509050019150509081526020016040518091039020549050919050565b600080821180156117fe57506003805490508211155b611809576000611845565b6003600183038154811061181957fe5b9060005260206000200160009054906101000a900473ffffffffffffffffffffffffffffffffffffffff165b9050919050565b600260009054906101000a900473ffffffffffffffffffffffffffffffffffffffff1681565b61187a612d96565b61188357600080fd5b80600073ffffffffffffffffffffffffffffffffffffffff168173ffffffffffffffffffffffffffffffffffffffff161415611927576040517f08c379a00000000000000000000000000000000000000000000000000000000081526004018080602001828103825260148152602001807f41646472657373206973206e6f742076616c696400000000000000000000000081525060200191505060405180910390fd5b6000600260009054906101000a900473ffffffffffffffffffffffffffffffffffffffff16905082600260006101000a81548173ffffffffffffffffffffffffffffffffffffffff021916908373ffffffffffffffffffffffffffffffffffffffff1602179055507f072a1227dd437d4b25a46e6b33a97e823875ad37911c084a9e5a405d50060762818442604051808473ffffffffffffffffffffffffffffffffffffffff1681526020018373ffffffffffffffffffffffffffffffffffffffff168152602001828152602001935050505060405180910390a1505050565b60606007805480602002602001604051908101604052809291908181526020018280548015611a8b57602002820191906000526020600020905b8160009054906101000a900473ffffffffffffffffffffffffffffffffffffffff1673ffffffffffffffffffffffffffffffffffffffff1681526020019060010190808311611a41575b5050505050905090565b611a9d612d96565b611aa657600080fd5b80600073ffffffffffffffffffffffffffffffffffffffff168173ffffffffffffffffffffffffffffffffffffffff161415611b4a576040517f08c379a00000000000000000000000000000000000000000000000000000000081526004018080602001828103825260148152602001807f41646472657373206973206e6f742076616c696400000000000000000000000081525060200191505060405180910390fd5b600260009054906101000a900473ffffffffffffffffffffffffffffffffffffffff1673ffffffffffffffffffffffffffffffffffffffff168273ffffffffffffffffffffffffffffffffffffffff161415611bf1576040517f08c379a00000000000000000000000000000000000000000000000000000000081526004018080602001828103825260328152602001806135b96032913960400191505060405180910390fd5b6000600460008473ffffffffffffffffffffffffffffffffffffffff1673ffffffffffffffffffffffffffffffffffffffff1681526020019081526020016000205414611ca6576040517f08c379a000000000000000000000000000000000000000000000000000000000815260040180806020018281038252601f8152602001807f4e65772063757272656e6379206b657920616c7265616479206578697374730081525060200191505060405180910390fd5b600073ffffffffffffffffffffffffffffffffffffffff166005846040518082805190602001908083835b60208310611cf45780518252602082019150602081019050602083039250611cd1565b6001836020036101000a038019825116818451168082178552505050505050905001915050908152602001604051809103902060009054906101000a900473ffffffffffffffffffffffffffffffffffffffff1673ffffffffffffffffffffffffffffffffffffffff161415611dd2576040517f08c379a00000000000000000000000000000000000000000000000000000000081526004018080602001828103825260198152602001807f43757272656e63792073796d626f6c206e6f7420666f756e640000000000000081525060200191505060405180910390fd5b60006005846040518082805190602001908083835b60208310611e0a5780518252602082019150602081019050602083039250611de7565b6001836020036101000a038019825116818451168082178552505050505050905001915050908152602001604051809103902060009054906101000a900473ffffffffffffffffffffffffffffffffffffffff1690506000600460008373ffffffffffffffffffffffffffffffffffffffff1673ffffffffffffffffffffffffffffffffffffffff1681526020019081526020016000205490508360036001830381548110611eb557fe5b9060005260206000200160006101000a81548173ffffffffffffffffffffffffffffffffffffffff021916908373ffffffffffffffffffffffffffffffffffffffff16021790555080600460008673ffffffffffffffffffffffffffffffffffffffff1673ffffffffffffffffffffffffffffffffffffffff16815260200190815260200160002081905550836005866040518082805190602001908083835b60208310611f785780518252602082019150602081019050602083039250611f55565b6001836020036101000a038019825116818451168082178552505050505050905001915050908152602001604051809103902060006101000a81548173ffffffffffffffffffffffffffffffffffffffff021916908373ffffffffffffffffffffffffffffffffffffffff16021790555084600660008673ffffffffffffffffffffffffffffffffffffffff1673ffffffffffffffffffffffffffffffffffffffff168152602001908152602001600020908051906020019061203c92919061344c565b50600460008373ffffffffffffffffffffffffffffffffffffffff1673ffffffffffffffffffffffffffffffffffffffff16815260200190815260200160002060009055600660008373ffffffffffffffffffffffffffffffffffffffff1673ffffffffffffffffffffffffffffffffffffffff16815260200190815260200160002060006120cb91906134cc565b7ea7703615b23a8d75fdf6bab3c6c89d45cffcddec9f421da7893e8068f740928583864260405180806020018573ffffffffffffffffffffffffffffffffffffffff1681526020018473ffffffffffffffffffffffffffffffffffffffff168152602001838152602001828103825286818151815260200191508051906020019080838360005b8381101561216d578082015181840152602081019050612152565b50505050905090810190601f16801561219a5780820380516001836020036101000a031916815260200191505b509550505050505060405180910390a15050505050565b60066020528060005260406000206000915090508054600181600116156101000203166002900480601f0160208091040260200160405190810160405280929190818152602001828054600181600116156101000203166002900480156122595780601f1061222e57610100808354040283529160200191612259565b820191906000526020600020905b81548152906001019060200180831161223c57829003601f168201915b505050505081565b606081600073ffffffffffffffffffffffffffffffffffffffff168173ffffffffffffffffffffffffffffffffffffffff161415612307576040517f08c379a00000000000000000000000000000000000000000000000000000000081526004018080602001828103825260148152602001807f41646472657373206973206e6f742076616c696400000000000000000000000081525060200191505060405180910390fd5b6000600460008573ffffffffffffffffffffffffffffffffffffffff1673ffffffffffffffffffffffffffffffffffffffff16815260200190815260200160002054116123bc576040517f08c379a00000000000000000000000000000000000000000000000000000000081526004018080602001828103825260168152602001807f43757272656e6379206e6f7420737570706f727465640000000000000000000081525060200191505060405180910390fd5b600660008473ffffffffffffffffffffffffffffffffffffffff1673ffffffffffffffffffffffffffffffffffffffff1681526020019081526020016000208054600181600116156101000203166002900480601f01602080910402602001604051908101604052809291908181526020018280546001816001161561010002031660029004801561248f5780601f106124645761010080835404028352916020019161248f565b820191906000526020600020905b81548152906001019060200180831161247257829003601f168201915b5050505050915050919050565b60096020528060005260406000206000915090508054600181600116156101000203166002900480601f0160208091040260200160405190810160405280929190818152602001828054600181600116156101000203166002900480156125445780601f1061251957610100808354040283529160200191612544565b820191906000526020600020905b81548152906001019060200180831161252757829003601f168201915b505050505081565b60086020528060005260406000206000915090505481565b600081600073ffffffffffffffffffffffffffffffffffffffff168173ffffffffffffffffffffffffffffffffffffffff16141561260a576040517f08c379a00000000000000000000000000000000000000000000000000000000081526004018080602001828103825260148152602001807f41646472657373206973206e6f742076616c696400000000000000000000000081525060200191505060405180910390fd5b6000600460008573ffffffffffffffffffffffffffffffffffffffff1673ffffffffffffffffffffffffffffffffffffffff1681526020019081526020016000205411915050919050565b61265d612d96565b61266657600080fd5b600073ffffffffffffffffffffffffffffffffffffffff1660008054906101000a900473ffffffffffffffffffffffffffffffffffffffff1673ffffffffffffffffffffffffffffffffffffffff167f8be0079c531659141344cd1fd0a4f28419497f9722a3daafe3b4186f6b6457e060405160405180910390a360008060006101000a81548173ffffffffffffffffffffffffffffffffffffffff021916908373ffffffffffffffffffffffffffffffffffffffff160217905550565b61272c612d96565b61273557600080fd5b81600073ffffffffffffffffffffffffffffffffffffffff168173ffffffffffffffffffffffffffffffffffffffff1614156127d9576040517f08c379a00000000000000000000000000000000000000000000000000000000081526004018080602001828103825260148152602001807f41646472657373206973206e6f742076616c696400000000000000000000000081525060200191505060405180910390fd5b81600073ffffffffffffffffffffffffffffffffffffffff168173ffffffffffffffffffffffffffffffffffffffff16141561287d576040517f08c379a00000000000000000000000000000000000000000000000000000000081526004018080602001828103825260148152602001807f41646472657373206973206e6f742076616c696400000000000000000000000081525060200191505060405180910390fd5b6000600860008673ffffffffffffffffffffffffffffffffffffffff1673ffffffffffffffffffffffffffffffffffffffff1681526020019081526020016000205411612932576040517f08c379a00000000000000000000000000000000000000000000000000000000081526004018080602001828103825260208152602001807f4f6c64206f7261636c65206164647265737320646f65736e277420657869737481525060200191505060405180910390fd5b6000600860008573ffffffffffffffffffffffffffffffffffffffff1673ffffffffffffffffffffffffffffffffffffffff16815260200190815260200160002054146129ca576040517f08c379a00000000000000000000000000000000000000000000000000000000081526004018080602001828103825260218152602001806135eb6021913960400191505060405180910390fd5b6000600860008673ffffffffffffffffffffffffffffffffffffffff1673ffffffffffffffffffffffffffffffffffffffff1681526020019081526020016000205490508360076001830381548110612a1f57fe5b9060005260206000200160006101000a81548173ffffffffffffffffffffffffffffffffffffffff021916908373ffffffffffffffffffffffffffffffffffffffff16021790555080600860008673ffffffffffffffffffffffffffffffffffffffff1673ffffffffffffffffffffffffffffffffffffffff16815260200190815260200160002081905550600960008673ffffffffffffffffffffffffffffffffffffffff1673ffffffffffffffffffffffffffffffffffffffff168152602001908152602001600020600960008673ffffffffffffffffffffffffffffffffffffffff1673ffffffffffffffffffffffffffffffffffffffff1681526020019081526020016000209080546001816001161561010002031660029004612b48929190613514565b50600860008673ffffffffffffffffffffffffffffffffffffffff1673ffffffffffffffffffffffffffffffffffffffff16815260200190815260200160002060009055600960008673ffffffffffffffffffffffffffffffffffffffff1673ffffffffffffffffffffffffffffffffffffffff1681526020019081526020016000206000612bd791906134cc565b7f158ed1253f0e3bc843d097639e5637c488fb5a0406c124d6dcbc7ae137c51eca600960008673ffffffffffffffffffffffffffffffffffffffff1673ffffffffffffffffffffffffffffffffffffffff16815260200190815260200160002086864260405180806020018573ffffffffffffffffffffffffffffffffffffffff1681526020018473ffffffffffffffffffffffffffffffffffffffff168152602001838152602001828103825286818154600181600116156101000203166002900481526020019150805460018160011615610100020316600290048015612d015780601f10612cd657610100808354040283529160200191612d01565b820191906000526020600020905b815481529060010190602001808311612ce457829003601f168201915b50509550505050505060405180910390a15050505050565b60038181548110612d2657fe5b906000526020600020016000915054906101000a900473ffffffffffffffffffffffffffffffffffffffff1681565b60008060009054906101000a900473ffffffffffffffffffffffffffffffffffffffff16905090565b60046020528060005260406000206000915090505481565b60008060009054906101000a900473ffffffffffffffffffffffffffffffffffffffff1673ffffffffffffffffffffffffffffffffffffffff163373ffffffffffffffffffffffffffffffffffffffff1614905090565b606081600073ffffffffffffffffffffffffffffffffffffffff168173ffffffffffffffffffffffffffffffffffffffff161415612e93576040517f08c379a00000000000000000000000000000000000000000000000000000000081526004018080602001828103825260148152602001807f41646472657373206973206e6f742076616c696400000000000000000000000081525060200191505060405180910390fd5b6000600860008573ffffffffffffffffffffffffffffffffffffffff1673ffffffffffffffffffffffffffffffffffffffff1681526020019081526020016000205411612f48576040517f08c379a00000000000000000000000000000000000000000000000000000000081526004018080602001828103825260148152602001807f4f7261636c652041504920737570706f7274656400000000000000000000000081525060200191505060405180910390fd5b600960008473ffffffffffffffffffffffffffffffffffffffff1673ffffffffffffffffffffffffffffffffffffffff1681526020019081526020016000208054600181600116156101000203166002900480601f01602080910402602001604051908101604052809291908181526020018280546001816001161561010002031660029004801561301b5780601f10612ff05761010080835404028352916020019161301b565b820191906000526020600020905b815481529060010190602001808311612ffe57829003601f168201915b5050505050915050919050565b6000600260009054906101000a900473ffffffffffffffffffffffffffffffffffffffff16905090565b61305a612d96565b61306357600080fd5b61306c81613355565b50565b6007818154811061307c57fe5b906000526020600020016000915054906101000a900473ffffffffffffffffffffffffffffffffffffffff1681565b6060600380548060200260200160405190810160405280929190818152602001828054801561312f57602002820191906000526020600020905b8160009054906101000a900473ffffffffffffffffffffffffffffffffffffffff1673ffffffffffffffffffffffffffffffffffffffff16815260200190600101908083116130e5575b5050505050905090565b613141612d96565b61314a57600080fd5b600081116131c0576040517f08c379a00000000000000000000000000000000000000000000000000000000081526004018080602001828103825260188152602001807f56616c75652063616e6e6f74206265206e65676174697665000000000000000081525060200191505060405180910390fd5b60006001836040518082805190602001908083835b602083106131f857805182526020820191506020810190506020830392506131d5565b6001836020036101000a0380198251168184511680821785525050505050509050019150509081526020016040518091039020549050816001846040518082805190602001908083835b602083106132655780518252602082019150602081019050602083039250613242565b6001836020036101000a0380198251168184511680821785525050505050509050019150509081526020016040518091039020819055507fff1f01d7130c893ebdd39a4de0117ce4ff043cc426ee3da02a63d26c83f0cf9a838284426040518080602001858152602001848152602001838152602001828103825286818151815260200191508051906020019080838360005b838110156133135780820151818401526020810190506132f8565b50505050905090810190601f1680156133405780820380516001836020036101000a031916815260200191505b509550505050505060405180910390a1505050565b600073ffffffffffffffffffffffffffffffffffffffff168173ffffffffffffffffffffffffffffffffffffffff16141561338f57600080fd5b8073ffffffffffffffffffffffffffffffffffffffff1660008054906101000a900473ffffffffffffffffffffffffffffffffffffffff1673ffffffffffffffffffffffffffffffffffffffff167f8be0079c531659141344cd1fd0a4f28419497f9722a3daafe3b4186f6b6457e060405160405180910390a3806000806101000a81548173ffffffffffffffffffffffffffffffffffffffff021916908373ffffffffffffffffffffffffffffffffffffffff16021790555050565b828054600181600116156101000203166002900490600052602060002090601f016020900481019282601f1061348d57805160ff19168380011785556134bb565b828001600101855582156134bb579182015b828111156134ba57825182559160200191906001019061349f565b5b5090506134c8919061359b565b5090565b50805460018160011615610100020316600290046000825580601f106134f25750613511565b601f016020900490600052602060002090810190613510919061359b565b5b50565b828054600181600116156101000203166002900490600052602060002090601f016020900481019282601f1061354d578054855561358a565b8280016001018555821561358a57600052602060002091601f016020900482015b8281111561358957825482559160010191906001019061356e565b5b509050613597919061359b565b5090565b5b808211156135b457600081600090555060010161359c565b509056fe4e65772063757272656e6379206b65792063616e6e6f7420657175616c20737461626c6520746f6b656e20616464726573734e6577206f7261636c65206164647265737320616c72656164792065786973747343616e6e6f7420657175616c20737461626c6520746f6b656e2061646472657373a26469706673582212203e7774063a8321ff3ce712feb9f74a601aa8c1b3d38a9fe07f14343741b0bd4864736f6c634300060c0033",
  "immutableReferences": {},
  "source": "pragma solidity >=0.5.0;\r\n\r\n//Interfaces\r\nimport './interfaces/ISettings.sol';\r\n\r\n//Libraries\r\nimport './libraries/SafeMath.sol';\r\n\r\n//Inheritance\r\nimport './Ownable.sol';\r\n\r\ncontract Settings is ISettings, Ownable {\r\n    using SafeMath for uint;\r\n\r\n    mapping (string => uint) public parameters;\r\n\r\n    //currencies\r\n    address public cUSDAddress;\r\n    address[] public availableCurrencies;\r\n    mapping (address => uint) public currencyKeyToIndex; //maps to (index + 1); index 0 represents currency key not found\r\n    mapping (string => address) public currencySymbolToAddress;\r\n    mapping (address => string) public currencyKeyToSymbol;\r\n\r\n    //oracles\r\n    address[] public oracleAPIAddresses;\r\n    mapping (address => uint) public isValidOracleAPIAddress; // maps to (index + 1) in oracleAPIAddresses array; index 0 represents invalid API address\r\n    mapping (address => string) public oracleAddressToName;\r\n\r\n    /**\r\n    * @notice Initial parameters and values:\r\n    *         WeeklyStakingRewards - 500,000 TGEN; \r\n    *         TransactionFee - 0.3%;\r\n    *         VoteLimit - 10;\r\n    *         VotingReward - 3 TGEN;\r\n    *         StrategyApprovalThreshold - 80%;\r\n    *         MaximumNumberOfEntryRules - 7;\r\n    *         MaximumNumberOfExitRules - 7;\r\n    *         MaximumNumberOfPoolsPerUser - 1;\r\n    *         MaximumPerformanceFee - 30%;\r\n    */\r\n    constructor() public Ownable() {}\r\n\r\n    /* ========== VIEWS ========== */\r\n\r\n    /**\r\n    * @dev Given the index in the array of available currencies, returns the currency key at that index\r\n    * @param index Index in the array of available currencies\r\n    * @return address Currency key at given index\r\n    */\r\n    function getCurrencyKeyFromIndex(uint index) public view override returns (address) {\r\n        return (index > 0 && index <= availableCurrencies.length) ? availableCurrencies[index - 1] : address(0);\r\n    }\r\n\r\n    /**\r\n    * @dev Given the name of a parameter, returns the value of the parameter\r\n    * @param parameter The name of the parameter to get value for\r\n    * @return uint The value of the given parameter\r\n    */\r\n    function getParameterValue(string memory parameter) public view override returns(uint) {\r\n        return parameters[parameter];\r\n    }\r\n\r\n    /**\r\n    * @dev Returns the addresses of supported currencies for trading\r\n    * @return address[] An array of addresses of supported currencies\r\n    */\r\n    function getAvailableCurrencies() external view override returns (address[] memory) {\r\n        return availableCurrencies;\r\n    }\r\n\r\n    /**\r\n    * @dev Given the address of a currency, returns the currency's symbol\r\n    * @param currencyKey The address of the currency\r\n    * @return string The currency symbol\r\n    */\r\n    function getCurrencySymbol(address currencyKey) external view override isValidAddress(currencyKey) returns(string memory) {\r\n        require(currencyKeyToIndex[currencyKey] > 0, \"Currency not supported\");\r\n\r\n        return currencyKeyToSymbol[currencyKey];\r\n    }\r\n\r\n    /**\r\n    * @dev Returns the address of the stable coin\r\n    * @return address The stable coin address\r\n    */\r\n    function getStableCoinAddress() public view override returns(address) {\r\n        return cUSDAddress;\r\n    }\r\n\r\n    /**\r\n    * @dev Returns the addresses and names of supported oracle APIs\r\n    * @return OracleData[] An array of oracle API addresses and names\r\n    */\r\n    function getOracleAPIs() public view override returns (address[] memory) {\r\n        return oracleAPIAddresses;\r\n    }\r\n\r\n    /**\r\n    * @dev Given the address of an oracle API, returns the name of the oracle API\r\n    * @param oracleAddress The address of the oracle API\r\n    * @return string The oracle API name\r\n    */\r\n    function getOracleAPIName(address oracleAddress) external view override isValidAddress(oracleAddress) returns(string memory) {\r\n        require(isValidOracleAPIAddress[oracleAddress] > 0, \"Oracle API supported\");\r\n\r\n        return oracleAddressToName[oracleAddress];\r\n    }\r\n\r\n    /**\r\n    * @dev Given the address of a currency, returns whether the currency is supported on the platform\r\n    * @param currencyKey The address of the currency\r\n    * @return bool Whether the currency is supported on the platform\r\n    */\r\n    function checkIfCurrencyIsAvailable(address currencyKey) external view override isValidAddress(currencyKey) returns (bool) {\r\n        return (currencyKeyToIndex[currencyKey] > 0);\r\n    }\r\n\r\n    /* ========== RESTRICTED FUNCTIONS ========== */\r\n\r\n    /**\r\n    * @dev Updates the address for the given contract; meant to be called by Settings contract owner\r\n    * @param parameter The name of the parameter to change\r\n    * @param newValue The new value of the given parameter\r\n    */\r\n    function setParameterValue(string memory parameter, uint newValue) external override onlyOwner {\r\n        require(newValue > 0, \"Value cannot be negative\");\r\n\r\n        uint oldValue = parameters[parameter];\r\n        parameters[parameter] = newValue;\r\n\r\n        emit SetParameterValue(parameter, oldValue, newValue, block.timestamp);\r\n    }\r\n\r\n    /**\r\n    * @dev Sets the address of the stable coin\r\n    * @param stableCoinAddress The address of the stable coin\r\n    */\r\n    function setStableCoinAddress(address stableCoinAddress) external override onlyOwner isValidAddress(stableCoinAddress) {\r\n        address oldAddress = cUSDAddress;\r\n        cUSDAddress = stableCoinAddress;\r\n\r\n        emit UpdatedStableCoinAddress(oldAddress, stableCoinAddress, block.timestamp);\r\n    }\r\n\r\n    /**\r\n    * @dev Updates the address of the given currency\r\n    * @param currencySymbol The currency symbol\r\n    * @param newCurrencyKey The new address for the given currency\r\n    */\r\n    function updateCurrencyKey(string memory currencySymbol, address newCurrencyKey) external override onlyOwner isValidAddress(newCurrencyKey) {\r\n        require(newCurrencyKey != cUSDAddress, \"New currency key cannot equal stable token address\");\r\n        require(currencyKeyToIndex[newCurrencyKey] == 0, \"New currency key already exists\");\r\n        require(currencySymbolToAddress[currencySymbol] != address(0), \"Currency symbol not found\");\r\n\r\n        address oldCurrencyKey = currencySymbolToAddress[currencySymbol];\r\n        uint oldCurrencyKeyIndex = currencyKeyToIndex[oldCurrencyKey];\r\n\r\n        availableCurrencies[oldCurrencyKeyIndex - 1] = newCurrencyKey;\r\n        currencyKeyToIndex[newCurrencyKey] = oldCurrencyKeyIndex;\r\n        currencySymbolToAddress[currencySymbol] = newCurrencyKey;\r\n        currencyKeyToSymbol[newCurrencyKey] = currencySymbol;\r\n\r\n        delete currencyKeyToIndex[oldCurrencyKey];\r\n        delete currencyKeyToSymbol[oldCurrencyKey];\r\n\r\n        emit UpdatedCurrencyKey(currencySymbol, oldCurrencyKey, newCurrencyKey, block.timestamp);\r\n    }\r\n\r\n    /**\r\n    * @dev Adds a new tradable currency to the platform\r\n    * @param currencySymbol The symbol of the currency to add\r\n    * @param currencyKey The address of the currency to add\r\n    */\r\n    function addCurrencyKey(string memory currencySymbol, address currencyKey) external override onlyOwner isValidAddress(currencyKey) {\r\n        require(currencyKey != cUSDAddress, \"Cannot equal stable token address\");\r\n        require(currencyKeyToIndex[currencyKey] == 0, \"Currency key already exists\");\r\n        require(currencySymbolToAddress[currencySymbol] == address(0), \"Currency symbol already exists\");\r\n\r\n        availableCurrencies.push(currencyKey);\r\n        currencyKeyToIndex[currencyKey] = availableCurrencies.length;\r\n        currencySymbolToAddress[currencySymbol] = currencyKey;\r\n        currencyKeyToSymbol[currencyKey] = currencySymbol;\r\n\r\n        emit AddedCurrencyKey(currencyKey, block.timestamp);\r\n    }\r\n\r\n    /**\r\n    * @dev Updates the address of a given oracle API\r\n    * @param oldOracleAddress The address of the oracle API to update\r\n    * @param newOracleAddress The new address of the given oracle API\r\n    */\r\n    function updateOracleAPIAddress(address oldOracleAddress, address newOracleAddress) external override onlyOwner isValidAddress(oldOracleAddress) isValidAddress(newOracleAddress) {\r\n        require(isValidOracleAPIAddress[oldOracleAddress] > 0, \"Old oracle address doesn't exist\");\r\n        require(isValidOracleAPIAddress[newOracleAddress] == 0, \"New oracle address already exists\");\r\n\r\n        uint oldOracleAddressIndex = isValidOracleAPIAddress[oldOracleAddress];\r\n\r\n        oracleAPIAddresses[oldOracleAddressIndex - 1] = newOracleAddress;\r\n        isValidOracleAPIAddress[newOracleAddress] = oldOracleAddressIndex;\r\n        oracleAddressToName[newOracleAddress] = oracleAddressToName[oldOracleAddress];\r\n\r\n        delete isValidOracleAPIAddress[oldOracleAddress];\r\n        delete oracleAddressToName[oldOracleAddress];\r\n\r\n        emit UpdatedOracleAPIAddress(oracleAddressToName[newOracleAddress], oldOracleAddress, newOracleAddress, block.timestamp);\r\n    }\r\n\r\n    /**\r\n    * @dev Adds a new oracle API to the platform\r\n    * @param name The name of the oracle API\r\n    * @param oracleAddress The address of the oracle API\r\n    */\r\n    function addOracleAPIAddress(string memory name, address oracleAddress) external override onlyOwner isValidAddress(oracleAddress) {\r\n        require(isValidOracleAPIAddress[oracleAddress] == 0, \"Oracle address already exists\");\r\n\r\n        oracleAPIAddresses.push(oracleAddress);\r\n        isValidOracleAPIAddress[oracleAddress] = oracleAPIAddresses.length;\r\n        oracleAddressToName[oracleAddress] = name;\r\n\r\n        emit AddedOracleAPIAddress(oracleAddress, block.timestamp);\r\n    }\r\n\r\n    /* ========== MODIFIERS ========== */\r\n\r\n    modifier isValidAddress(address addressToCheck) {\r\n        require(addressToCheck != address(0), \"Address is not valid\");\r\n        _;\r\n    }\r\n\r\n    /* ========== EVENTS ========== */\r\n\r\n    event AddedCurrencyKey(address currencyKey, uint timestamp);\r\n    event AddedOracleAPIAddress(address oracleAddress, uint timestamp);\r\n    event SetParameterValue(string parameter,uint oldValue, uint newValue, uint timestamp);\r\n    event UpdatedStableCoinAddress(address oldAddress, address stableCurrencyAddress, uint timestamp);\r\n    event UpdatedCurrencyKey(string currencySymbol, address oldCurrencyKey, address newCurrencyKey, uint timestamp); \r\n    event UpdatedOracleAPIAddress(string oracleName, address oldOracleAddress, address newOracleAddress, uint timestamp);\r\n}",
  "sourcePath": "C:/Users/xavie/OneDrive/Desktop/TradeGen/Github/tradegen/contracts/Settings.sol",
  "compiler": {
    "name": "solc",
    "version": "0.6.12+commit.27d51765.Emscripten.clang"
  },
  "schemaVersion": "3.4.1",
  "updatedAt": "2021-07-12T15:49:44.837Z",
  "devdoc": {
    "kind": "dev",
    "methods": {
      "addCurrencyKey(string,address)": {
        "details": "Adds a new tradable currency to the platform",
        "params": {
          "currencyKey": "The address of the currency to add",
          "currencySymbol": "The symbol of the currency to add"
        }
      },
      "addOracleAPIAddress(string,address)": {
        "details": "Adds a new oracle API to the platform",
        "params": {
          "name": "The name of the oracle API",
          "oracleAddress": "The address of the oracle API"
        }
      },
      "checkIfCurrencyIsAvailable(address)": {
        "details": "Given the address of a currency, returns whether the currency is supported on the platform",
        "params": {
          "currencyKey": "The address of the currency"
        },
        "returns": {
          "_0": "bool Whether the currency is supported on the platform"
        }
      },
      "getAvailableCurrencies()": {
        "details": "Returns the addresses of supported currencies for trading",
        "returns": {
          "_0": "address[] An array of addresses of supported currencies"
        }
      },
      "getCurrencyKeyFromIndex(uint256)": {
        "details": "Given the index in the array of available currencies, returns the currency key at that index",
        "params": {
          "index": "Index in the array of available currencies"
        },
        "returns": {
          "_0": "address Currency key at given index"
        }
      },
      "getCurrencySymbol(address)": {
        "details": "Given the address of a currency, returns the currency's symbol",
        "params": {
          "currencyKey": "The address of the currency"
        },
        "returns": {
          "_0": "string The currency symbol"
        }
      },
      "getOracleAPIName(address)": {
        "details": "Given the address of an oracle API, returns the name of the oracle API",
        "params": {
          "oracleAddress": "The address of the oracle API"
        },
        "returns": {
          "_0": "string The oracle API name"
        }
      },
      "getOracleAPIs()": {
        "details": "Returns the addresses and names of supported oracle APIs",
        "returns": {
          "_0": "OracleData[] An array of oracle API addresses and names"
        }
      },
      "getParameterValue(string)": {
        "details": "Given the name of a parameter, returns the value of the parameter",
        "params": {
          "parameter": "The name of the parameter to get value for"
        },
        "returns": {
          "_0": "uint The value of the given parameter"
        }
      },
      "getStableCoinAddress()": {
        "details": "Returns the address of the stable coin",
        "returns": {
          "_0": "address The stable coin address"
        }
      },
      "isOwner()": {
        "returns": {
          "_0": "true if `msg.sender` is the owner of the contract."
        }
      },
      "owner()": {
        "returns": {
          "_0": "the address of the owner."
        }
      },
      "renounceOwnership()": {
        "details": "Allows the current owner to relinquish control of the contract."
      },
      "setParameterValue(string,uint256)": {
        "details": "Updates the address for the given contract; meant to be called by Settings contract owner",
        "params": {
          "newValue": "The new value of the given parameter",
          "parameter": "The name of the parameter to change"
        }
      },
      "setStableCoinAddress(address)": {
        "details": "Sets the address of the stable coin",
        "params": {
          "stableCoinAddress": "The address of the stable coin"
        }
      },
      "transferOwnership(address)": {
        "details": "Allows the current owner to transfer control of the contract to a newOwner.",
        "params": {
          "newOwner": "The address to transfer ownership to."
        }
      },
      "updateCurrencyKey(string,address)": {
        "details": "Updates the address of the given currency",
        "params": {
          "currencySymbol": "The currency symbol",
          "newCurrencyKey": "The new address for the given currency"
        }
      },
      "updateOracleAPIAddress(address,address)": {
        "details": "Updates the address of a given oracle API",
        "params": {
          "newOracleAddress": "The new address of the given oracle API",
          "oldOracleAddress": "The address of the oracle API to update"
        }
      }
    },
    "version": 1
  },
  "userdoc": {
    "kind": "user",
    "methods": {
      "constructor": "Initial parameters and values:         WeeklyStakingRewards - 500,000 TGEN;          TransactionFee - 0.3%;         VoteLimit - 10;         VotingReward - 3 TGEN;         StrategyApprovalThreshold - 80%;         MaximumNumberOfEntryRules - 7;         MaximumNumberOfExitRules - 7;         MaximumNumberOfPoolsPerUser - 1;         MaximumPerformanceFee - 30%;",
      "renounceOwnership()": {
        "notice": "Renouncing to ownership will leave the contract without an owner. It will not be possible to call the functions with the `onlyOwner` modifier anymore."
      }
    },
    "version": 1
  }
}